:020000040800F2
:10000000800E0020AD010008B5010008B70100080E
:1000100000000000000000000000000000000000E0
:10002000000000000000000000000000B90100080E
:100030000000000000000000BB010008D507000818
:10004000BF01000800000000BF010008BF01000858
:10005000BF010008BF010008BF010008BF01000880
:1000600000000000BF010008BF010008BF01000838
:10007000BF010008BF010008BF0100080000000028
:10008000BF0100080000000000000000BF010008E0
:1000900000000000BF010008BF010008BF01000808
:1000A000BF010008BF010008BF010008BF01000830
:1000B000BF01000800000000000000000000000078
:1000C00000F002F800F047F80CA030C808382418F7
:1000D0002D18A246671EAB4654465D46AC4201D180
:1000E00000F039F87E460F3E0FCCB646012633426B
:1000F00000D0FB1AA246AB4633431847BC1300009E
:10010000DC130000103A02D378C878C1FAD852073D
:1001100001D330C830C101D504680C6070470000BD
:100120000023002400250026103A01D378C1FBD813
:10013000520700D330C100D50B6070471FB500983F
:10014000019900F050FA00F0C5F91FBD10B500206C
:1001500000F007FA10BD00F0A0FA1146FFF7EEFF1D
:1001600000F048FF00F0D2FA03B4FFF7EFFF03BC42
:1001700000F00AFB70B505460C46164602E00FCCAF
:100180000FC5103E102EFAD2082E02D303CC03C5A1
:10019000083E042E07D301CC01C5361F03E02178A9
:1001A0002970641C6D1C761EF9D270BD074880470B
:1001B00007480047FEE7FEE7FEE7FEE7FEE7FEE74B
:1001C00004480549054A064B70470000ED07000842
:1001D000C100000880080020800E0020800A002056
:1001E000800A0020F8B5074615460E46102000F09C
:1001F00087F9040009D06760A660E56000F07CF92B
:100200000168216004600020F8BD0120F8BD0000F5
:100210000346F0B50B439B072DD1244DEF01042A73
:1002200029D308C810C95E1B9E43121F3E4017D039
:10023000D8B2E1B2401A3106014310D198B2A1B24E
:10024000401A310401430AD118022102000A090AA6
:10025000401A3102014302D1180E210E401AF0BD9E
:10026000A342DCD018BA21BA884201D90120F0BDDE
:100270000020C043F0BD002A01D10020F0BD03786A
:100280000C78401C491C002B0DD0A3420BD1521EF0
:1002900009D003780C78401C491C002B03D0A342E2
:1002A00001D1521EEBD1181BF0BD0000010101016C
:1002B000F8B5042A2CD3830712D00B78491C03709D
:1002C000401C521E83070BD00B78491C0370401C46
:1002D000521E830704D00B78491C0370401C521E29
:1002E0008B079B0F05D0C91ADF002023DE1B08C92E
:1002F0000AE0FFF73FFFF8BD1D4608C9FD401C4658
:10030000B4402C4310C0121F042AF5D2F308C91AB6
:10031000521EF0D40B78491C0370401C521EEAD4C4
:100320000B78491C0370401C012AE4D40978017041
:10033000F8BD01E004C0091F0429FBD28B0701D5D9
:100340000280801CC90700D00270704700290BD0C2
:10035000C30702D00270401C491E022904D3830740
:1003600002D50280801C891EE3E70022EEE700220E
:10037000DFE7002203098B422CD3030A8B4211D3FF
:1003800000239C464EE003460B433CD40022430826
:100390008B4231D303098B421CD3030A8B4201D316
:1003A00094463FE0C3098B4201D3CB01C01A5241AE
:1003B00083098B4201D38B01C01A524143098B42FE
:1003C00001D34B01C01A524103098B4201D30B01E7
:1003D000C01A5241C3088B4201D3CB00C01A52410C
:1003E00083088B4201D38B00C01A524143088B42D1
:1003F00001D34B00C01A5241411A00D2014652416A
:10040000104670475DE0CA0F00D04942031000D388
:100410004042534000229C4603098B422DD3030ADD
:100420008B4212D3FC22890112BA030A8B420CD3ED
:10043000890192118B4208D3890192118B4204D316
:1004400089013AD0921100E08909C3098B4201D396
:10045000CB01C01A524183098B4201D38B01C01AD0
:10046000524143098B4201D34B01C01A5241030947
:100470008B4201D30B01C01A5241C3088B4201D3F6
:10048000CB00C01A524183088B4201D38B00C01AA3
:100490005241D9D243088B4201D34B00C01A52417A
:1004A000411A00D20146634652415B10104601D307
:1004B0004042002B00D54942704763465B1000D391
:1004C000404201B50020C046C04602BD704770479B
:1004D0007047000070B5064C7C44064D7D4403E037
:1004E000206800198047241DAC42F9D170BD00007E
:1004F000FC0F0000FC0F0000004870475808002067
:1005000070B5064600F052F8056830460B30C40856
:10051000E400B44201D8002070BD68682A46002873
:1005200018D00168A14211D30B46214608318B42F5
:1005300008D3436801194B6003681B1B0B605160B3
:10054000046001E041685160001D70BD02464068D2
:100550000028E6D12146284600F030F80028DCD1FA
:1005600070BDF8B50646FFF7C7FF0090054615E0D9
:10057000002E02D0E068B0420FD1206828600098B9
:10058000A168076860688847204600F060F8009816
:100590000068B84202D00098E8E725462C68002C95
:1005A000E6D1F8BD00487047200800200048704799
:1005B00028080020704770477047704738B50446D8
:1005C0000A4600206946C046C046002805D00246BB
:1005D0002046009900F080F8012038BD10B50120B8
:1005E00000F09CF810BDF8B5C046C0460546002096
:1005F0000C461020C0460646A819A0420DD9324626
:1006000069460020C046C046070001D100F086F8C8
:100610000098A04200D00546C419FFF7C7FFF61D99
:1006200007460560F008C0004619284600F008F8A3
:10063000B44204D031463868A21B00F04DF8F8BD32
:10064000002101604160806070471020704770B5E4
:100650000446051FFFF7AAFF0068002C1AD0446863
:1006600001E020466468002C01D0AC42F9D3016857
:100670000A18AA4204D12A6805468918016000E0D8
:10068000456028684119A14205D161686960216807
:100690004018286070BD6C6070BD7546FFF782FF22
:1006A000AE46050069465346C008C000854618B0EE
:1006B00020B5FFF785FD60BC00274908B646002637
:1006C000C0C5C0C5C0C5C0C5C0C5C0C5C0C5C0C502
:1006D000403D49008D46704710B50346406801E033
:1006E00003464068002801D08842F9D31868C3182F
:1006F0008B4206D0CB1CD808C000001D411A521AEC
:100700000146081D0A60FFF7A2FF10BD10B50446A0
:10071000C046C0462046FFF727FD10BD10B500F0CB
:100720000BF800F002F810BD704710B5002801D09A
:1007300000F02AF810BD000010B5012805D00021F6
:1007400003A000F027F8012010BD09A1F8E7000080
:1007500053494752544D454D3A204F7574206F66AA
:100760002068656170206D656D6F72790000000012
:100770003A2048656170206D656D6F727920636FF6
:10078000727275707465640001491820ABBEFEE793
:100790002600020070B505460C460A2000E06D1CDC
:1007A00000F012F8002D06D028780028F7D102E0DA
:1007B000641C00F009F8002C02D020780028F7D142
:1007C0000A2000F001F870BD08B5694608700320E2
:1007D000ABBE08BD10B504480068401C0249086063
:1007E00000F074FB10BD0000000000200120C006D6
:1007F000014988607047000000ED00E07CB50346C9
:100800001046D40F241864106400141B01D000207B
:100810007CBD00BF41480069012424042040002819
:10082000F8D100BF3D4800690124A40420400028FD
:10083000F8D13A484069C00FC007002804D03848B2
:10084000364CA0603748A06034480069364C2043DD
:10085000324C206120464069022420432F4C6061C5
:1008600020464069FF24F934A0430124E4061C1B00
:10087000240AFF25F9352C402043284C606120468E
:100880004069012424042043244C606100BF2348B4
:1008900000690124240420400028F8D11F48006981
:1008A000214C20431D4C2061204640690224A04376
:1008B0001A4C6061002026E0184C646901252C4325
:1008C000164D6C61C410E4000C1930CC01950094F5
:1008D0001E18019D009C3460756000BF0F4C246998
:1008E00001252D042C40002CF8D10C4C2469012545
:1008F0002C430A4D2C612C466469640864006C61C9
:1009000004460834A0B29042D6DB04484069012472
:10091000E4072043014C6061012079E70020024098
:1009200023016745AB89EFCDFB83000010B500289C
:1009300019DB1A4A03231B02D21883089B00D258E2
:100940008307DC0EFF23A3409A438B071B0E84070B
:10095000E40EA3401A43114B032424021B198408FC
:10096000A4001A5118E00E4A03071B0F083B9B080E
:100970009B00D2588307DC0EFF23A3409A438B07CA
:100980001B0E8407E40EA3401A43054B0407240FF3
:10099000083CA408A4001A5110BD000000E100E0CA
:1009A0001CED00E010B5002415E00C484069012161
:1009B0008902084309494861642000F011F807489A
:1009C000406901218902884304494861642000F09C
:1009D00007F8601CC4B2032CE7DB10BD0004005014
:1009E00008B505490968009100BF00990918024A35
:1009F00012689142F9D808BD00000020F0B5034606
:100A00000A4600241249002A02D1C84380B2F0BD30
:100A1000002012E01D5C694000250AE0CE07F60FB9
:100A2000002E04D04E080B4F7E40314600E04908AE
:100A30006D1C082DF2DB451CA8B29042EADBC943CD
:100A40000C46080225042D0E2843014688B2DEE735
:100A5000FFFF0000088400000D48406B032108439D
:100A60000B4948630B48006803210905884309497D
:100A7000086008460068890208430649086008467D
:100A8000406901218902884302494861704700009A
:100A9000001002400004005070B572B6044844686B
:100AA00025460146086880F3088800BFA84770BD46
:100AB00000180008F0B5B5B007460D4616461C46AE
:100AC000B02109A8FFF753FC09AA8021384600F09D
:100AD000ABF8002E02D0012E24D106E00A2209A98B
:100AE000284600F048F835B0F0BD002C00D1FAE7F8
:100AF000202101A8FFF73BFC1022294601A8FFF79F
:100B0000D7FB0A2209A9284600F035F810231A4617
:100B10002146284600F076F8102201A92046FFF76A
:100B2000C7FBE0E700BFDEE708B503786A4613704D
:100B300003795370037A9370037BD3700422521AA3
:100B40009207920F6B469A5C02700422521A521C52
:100B50009207920F9A5C02710422521A921C920719
:100B6000920F9A5C02720422521AD21C9207920FC0
:100B70009A5C027308BDF0B507460D46164634462A
:100B800030014119384600F017F808E0601EC4B281
:100B900020014119384600F0E7F8701EC6B2012E58
:100BA000F4DC002405E0385D295D48403855601CC0
:100BB000C4B2102CF7DBF0BD70B505460E4600241C
:100BC00005E0285D315D48402855601CC4B2102CFA
:100BD000F7DB0121681CFFF7A7FF0221A81CFFF724
:100BE000A3FF0321E81CFFF79FFF002405E0285D19
:100BF0000349085C2855601CC4B2102CF7DB70BD9B
:100C00009C130008F0B504461D468C4200D81546DA
:100C1000002005E0265C0F5C7E402654461CF0B2A6
:100C2000A842F7DBF0BD0000F7B586B00E461746C8
:100C300000200390F004050EE81D8006000E0590CC
:100C4000F017400F8019C210019638460699FFF739
:100C50002FFB04952C4657E0601E80003858029008
:100C60000498844220D0082D45D12046E117490F31
:100C70000918C910C900611A04293CD16846007AD4
:100C80002449095C68460172407A2249095C684639
:100C90004172807A1F49095C68468172C07A1D4999
:100CA000095C6846C17226E004984019C0B20490FD
:100CB00002A800F033F86846007A1649095C6846D5
:100CC0000172407A1349095C68464172807A114981
:100CD000095C68468172C07A0E49095C6846C17237
:100CE000007A0D4A0399515C48406946087203989E
:100CF000401CC0B20390601B8000385802994840E5
:100D0000A1007850601CC4B205988442A4DB09B0ED
:100D1000F0BD00009C1200089C1400080178427885
:100D2000027082784270C2788270C170704770B56C
:100D300003460020002413E0CE07F60F002E02D059
:100D400006465E40304680261D4635405E06330E20
:100D5000002D02D01E46564033464910661CF4B2A0
:100D6000082CE9DB70BD0000F3B586B00546002411
:100D700007E0295D0798005D414002A80155601C0D
:100D8000C4B2102CF5DB002482E0A000C01C02A934
:100D90000F5CA100891C02AA515C4F40A000401CBE
:100DA00002A9085CA100515C48400190019878407C
:100DB00006461B2231460920FFF7B9FF0646A00070
:100DC000801C02AA105CA20002AB9A5C5040014653
:100DD0001B220420FFF7ABFF70400090A000C01C56
:100DE00002AA105CA200521C02AB9A5C5040014661
:100DF0001B220420FFF79BFF4640A00002AA105CC4
:100E0000A200D21C02AB9A5C504001461B22022079
:100E1000FFF78DFFA100C91C02AA515C7140484038
:100E2000A100C91C68541B2239460220FFF77FFF2E
:100E3000A100891C02AA525C00994A405040A100BE
:100E4000891C6854A000801C02AA105CA200521CDD
:100E500002AB9A5C504001461B220220FFF767FF5D
:100E6000A100491C02AA515C71404840A100491CE4
:100E700068541B2202200199FFF759FFA10002AA22
:100E8000525C00994A405040A1006854601CC4B2B2
:100E9000042C00DA79E70121681CFFF745FE0221E6
:100EA000A81CFFF741FE0321E81CFFF73DFE0024CC
:100EB00005E0285D0449085C2855601CC4B2102C6C
:100EC000F7DB08B0F0BD00009C1300080248006882
:100ED000401C014908607047080000200146114885
:100EE000026814E00F4800680F4BD31898420ED9DF
:100EF0000E48C06902231840002804D00B48006A3D
:100F000018430A4B186200200870012070470748F8
:100F1000C069202318400028E4D00448406A0870C3
:100F20000020F3E708000020EE0200000038014036
:100F300000BF0449C969402211400029F9D0014984
:100F4000886270470038014010B504461A48406B6B
:100F500001210843184948630520000700680F2154
:100F6000890488430521090708600846006849127A
:100F70000843490208600846406AFF2111310843CE
:100F80000521090748620C484030006801218903A7
:100F9000084309494031086021460848FFF7E9F94C
:100FA0000749C860052000038860084600680D21D5
:100FB00008430349086010BD001002400024F400FB
:100FC000003801400021014A1160704708000020EC
:100FD0007047000010B50448FFF7F4FF0446034AC9
:100FE0000349FFF7FFF810BD0400002000000008CF
:100FF000D10F0008F0B58BB0FFF7F8FB7D24E401BA
:10100000601E9749884201D901200CE0601E954975
:1010100048610321081FFFF789FC0020914988617E
:10102000072008610020002802D000200BB0F0BD8E
:101030008D48406B012108438B4948630520000718
:101040000068032189028843052109070860FFF72A
:1010500003FD0E2285A18948FFF7DAF8002801D1A7
:10106000012000E000200A900520000700692021EF
:101070000840002806D10A98002803D1FFF70CFD8C
:101080000020D3E70A9800280AD000200690079095
:10109000089009900F2206A97848FFF7AFFB00BF20
:1010A0004B200002FFF750FFFFF77CFCD6E07448AE
:1010B00040690121890288437149486100200990F3
:1010C00009A8FFF70BFF002800D0C7E008A80079A7
:1010D000BA2800D0C2E009A8FFF700FF002800D01E
:1010E000BCE008A80079FB2801D1FFF7D5FC08A8CF
:1010F0000079BF2800D0B1E062496348FFF735F9B5
:101100000024002620E060490819FFF7E7FE0028C8
:1011100001D001261AE05C48005DBA280ED10020FB
:10112000029002A8FFF7DAFE002801D001260DE0A8
:101130006846007A002800D0012600BF601C84B2F7
:101140005048844200D301E0002EDCD000BF002EC6
:1011500006D0BA20FFF7ECFEC220FFF7E9FE7DE0E3
:101160004A48477C0146097C09020F438121090155
:101170004548FFF743FC0546BD4206D0BA20FFF7BD
:10118000D7FEC220FFF7D4FE68E00020059006904D
:101190000790089002900DE03B490298081805ABB3
:1011A0000122014601903A48FFF784FC0298103072
:1011B00080B202908121090102988842ECDB32481A
:1011C00040783149097809020843074600202E4932
:1011D000487008702B49091F2B48801CFFF70EFC34
:1011E00005462948C07828498978090208430490AF
:1011F000BD4203D127490498884206D0BA20FFF7A0
:1012000097FEC220FFF794FE28E01D4840690121A7
:10121000890208431A4948611B48C0791A498979EB
:101220000902084303901B21C9020398884206DD86
:10123000BA20FFF77DFEC220FFF77AFE0EE0164AC5
:1012400003998818121410491031FFF7D7FABA2001
:10125000FFF76EFEC120FFF76BFE00BF27E700001F
:10126000FFFFFF0000E000E0001002407A657264BA
:101270004067656E657261746F720000F0FF000870
:1012800000040050120800000C0000200C08002090
:10129000A6140008707A000000180008637C777BB1
:1012A000F26B6FC53001672BFED7AB76CA82C97D62
:1012B000FA5947F0ADD4A2AF9CA472C0B7FD9326F3
:1012C000363FF7CC34A5E5F171D8311504C723C3F7
:1012D0001896059A071280E2EB27B27509832C1A3B
:1012E0001B6E5AA0523BD6B329E32F8453D100ED95
:1012F00020FCB15B6ACBBE394A4C58CFD0EFAAFB79
:10130000434D338545F9027F503C9FA851A3408F40
:10131000929D38F5BCB6DA2110FFF3D2CD0C13EC58
:101320005F974417C4A77E3D645D197360814FDCED
:10133000222A908846EEB814DE5E0BDBE0323A0AD1
:101340004906245CC2D3AC629195E479E7C8376D55
:101350008DD54EA96C56F4EA657AAE08BA78252E7A
:101360001CA6B4C6E8DD741F4BBD8B8A703EB56603
:101370004803F60E613557B986C11D9EE1F89811F4
:1013800069D98E949B1E87E9CE5528DF8CA1890DE3
:10139000BFE6426841992D0FB054BB1652096AD579
:1013A0003036A538BF40A39E81F3D7FB7CE339825A
:1013B0009B2FFF87348E4344C4DEE9CB547B9432A9
:1013C000A6C2233DEE4C950B42FAC34E082EA166F1
:1013D00028D924B2765BA2496D8BD12572F8F664C8
:1013E00086689816D4A45CCC5D65B6926C70485043
:1013F000FDEDB9DA5E154657A78D9D8490D8AB00F8
:101400008CBCD30AF7E45805B8B34506D02C1E8F20
:10141000CA3F0F02C1AFBD0301138A6B3A9111415C
:101420004F67DCEA97F2CFCEF0B4E67396AC742245
:10143000E7AD3585E2F937E81C75DF6E47F11A71C3
:101440001D29C5896FB7620EAA18BE1BFC563E4BFC
:10145000C6D279209ADBC0FE78CD5AF41FDDA833BE
:101460008807C731B11210592780EC5F60517FA9FE
:1014700019B54A0D2DE57A9F93C99CEFA0E03B4D2D
:10148000AE2AF5B0C8EBBB3C83539961172B047EA1
:10149000BA77D626E169146355210C7D0102040850
:1014A000102040801B3673F2128AB842D817F1A47C
:1014B00031B32C340F4C0000DC1400080000002075
:1014C0000C00000004010008E81400080C000020D3
:1014D000740E000020010008FDFAFFFF000000006C
:0814E000000000000000000004
:04000005080000C12E
:00000001FF
