:020000040800F2
:20000000800E0020A5010008AD010008AF0100080000000000000000000000000000000016
:20002000000000000000000000000000B10100080000000000000000B3010008CD0700086E
:20004000B701000800000000B7010008B7010008B7010008B7010008B7010008B701000860
:2000600000000000B7010008B7010008B7010008B7010008B7010008B70100080000000000
:20008000B7010008B7010008B7010008B7010008B7010008B7010008B7010008B701000860
:2000A000B7010008B7010008B7010008B7010008B7010008B701000800F002F800F047F8A7
:2000C0000CA030C8083824182D18A246671EAB4654465D46AC4201D100F039F87E460F3E2E
:2000E0000FCCB6460126334200D0FB1AA246AB463343184780140000A0140000103A02D393
:2001000078C878C1FAD8520701D330C830C101D504680C6070470000002300240025002687
:20012000103A01D378C1FBD8520700D330C100D50B6070471FB50098019900F050FA00F051
:20014000C5F91FBD10B5002000F007FA10BD00F0A0FA1146FFF7EEFF00F0B4FF00F0D2FA3F
:2001600003B4FFF7EFFF03BC00F00AFB70B505460C46164602E00FCC0FC5103E102EFAD229
:20018000082E02D303CC03C5083E042E07D301CC01C5361F03E021782970641C6D1C761ED1
:2001A000F9D270BD0748804707480047FEE7FEE7FEE7FEE7FEE7FEE704480549054A064B03
:2001C00070470000E5070008B900000880080020800E0020800A0020800A0020F8B507460F
:2001E00015460E46102000F087F9040009D06760A660E56000F07CF90168216004600020EE
:20020000F8BD0120F8BD00000346F0B50B439B072DD1244DEF01042A29D308C810C95E1BCA
:200220009E43121F3E4017D0D8B2E1B2401A3106014310D198B2A1B2401A310401430AD129
:2002400018022102000A090A401A3102014302D1180E210E401AF0BDA342DCD018BA21BA06
:20026000884201D90120F0BD0020C043F0BD002A01D10020F0BD03780C78401C491C002B88
:200280000DD0A3420BD1521E09D003780C78401C491C002B03D0A34201D1521EEBD1181BA3
:2002A000F0BD000001010101F8B5042A2CD3830712D00B78491C0370401C521E83070BD0BB
:2002C0000B78491C0370401C521E830704D00B78491C0370401C521E8B079B0F05D0C91A7E
:2002E000DF002023DE1B08C90AE0FFF73FFFF8BD1D4608C9FD401C46B4402C4310C0121F08
:20030000042AF5D2F308C91A521EF0D40B78491C0370401C521EEAD40B78491C0370401C3A
:20032000012AE4D409780170F8BD01E004C0091F0429FBD28B0701D50280801CC90700D046
:200340000270704700290BD0C30702D00270401C491E022904D3830702D50280801C891E77
:20036000E3E70022EEE70022DFE7002203098B422CD3030A8B4211D300239C464EE00346A0
:200380000B433CD4002243088B4231D303098B421CD3030A8B4201D394463FE0C3098B42B9
:2003A00001D3CB01C01A524183098B4201D38B01C01A524143098B4201D34B01C01A524164
:2003C00003098B4201D30B01C01A5241C3088B4201D3CB00C01A524183088B4201D38B009C
:2003E000C01A524143088B4201D34B00C01A5241411A00D201465241104670475DE0CA0FC2
:2004000000D04942031000D34042534000229C4603098B422DD3030A8B4212D3FC22890142
:2004200012BA030A8B420CD3890192118B4208D3890192118B4204D389013AD0921100E07A
:200440008909C3098B4201D3CB01C01A524183098B4201D38B01C01A524143098B4201D351
:200460004B01C01A524103098B4201D30B01C01A5241C3088B4201D3CB00C01A524183086E
:200480008B4201D38B00C01A5241D9D243088B4201D34B00C01A5241411A00D20146634657
:2004A00052415B10104601D34042002B00D54942704763465B1000D3404201B50020C0460B
:2004C000C04602BD704770477047000070B5064C7C44064D7D4403E0206800198047241D5B
:2004E000AC42F9D170BD0000C0100000C0100000004870475808002070B5064600F052F84D
:20050000056830460B30C408E400B44201D8002070BD68682A46002818D00168A14211D371
:200520000B46214608318B4208D3436801194B6003681B1B0B605160046001E04168516056
:20054000001D70BD024640680028E6D12146284600F030F80028DCD170BDF8B50646FFF7A4
:20056000C7FF0090054615E0002E02D0E068B0420FD1206828600098A16807686068884714
:20058000204600F060F800980068B84202D00098E8E725462C68002CE6D1F8BD00487047E4
:2005A000200800200048704728080020704770477047704738B504460A4600206946C0466C
:2005C000C046002805D002462046009900F080F8012038BD10B5012000F09CF810BDF8B56F
:2005E000C046C046054600200C461020C0460646A819A0420DD9324669460020C046C046D4
:20060000070001D100F086F80098A04200D00546C419FFF7C7FFF61D07460560F008C000E8
:200620004619284600F008F8B44204D031463868A21B00F04DF8F8BD002101604160806072
:2006400070471020704770B50446051FFFF7AAFF0068002C1AD0446801E020466468002C61
:2006600001D0AC42F9D301680A18AA4204D12A6805468918016000E0456028684119A14272
:2006800005D16168696021684018286070BD6C6070BD7546FFF782FFAE46050069465346F0
:2006A000C008C000854618B020B5FFF785FD60BC00274908B6460026C0C5C0C5C0C5C0C508
:2006C000C0C5C0C5C0C5C0C5403D49008D46704710B50346406801E003464068002801D035
:2006E0008842F9D31868C3188B4206D0CB1CD808C000001D411A521A0146081D0A60FFF72F
:20070000A2FF10BD10B50446C046C0462046FFF727FD10BD10B500F00BF800F002F810BD94
:20072000704710B5002801D000F02AF810BD000010B5012805D0002103A000F027F80120AE
:2007400010BD09A1F8E7000053494752544D454D3A204F7574206F662068656170206D65A4
:200760006D6F7279000000003A2048656170206D656D6F727920636F727275707465640029
:2007800001491820ABBEFEE72600020070B505460C460A2000E06D1C00F012F8002D06D00F
:2007A00028780028F7D102E0641C00F009F8002C02D020780028F7D10A2000F001F870BD90
:2007C00008B5694608700320ABBE08BD10B504480068401C0249086000F0E0FB10BD0000C4
:2007E000000000200120C006014988607047000000ED00E07CB503461046D40F24186410D9
:200800006400141B01D000207CBD00BF414800690124240420400028F8D100BF3D4800691F
:200820000124A40420400028F8D13A484069C00FC007002804D03848364CA0603748A0605C
:2008400034480069364C2043324C206120464069022420432F4C606120464069FF24F9349C
:20086000A0430124E4061C1B240AFF25F9352C402043284C6061204640690124240420430C
:20088000244C606100BF234800690124240420400028F8D11F480069214C20431D4C20616C
:2008A000204640690224A0431A4C6061002026E0184C646901252C43164D6C61C410E40025
:2008C0000C1930CC019500941E18019D009C3460756000BF0F4C246901252D042C40002C5E
:2008E000F8D10C4C246901252C430A4D2C612C466469640864006C6104460834A0B290424B
:20090000D6DB044840690124E4072043014C6061012079E70020024023016745AB89EFCD0D
:20092000FB83000070B504462948006AC0B2AA284DD100F097F800BF25480069012109044A
:2009400008400028F8D122484069C00FC007002804D020481E4988601F4888601C484069A6
:20096000012189070840002804D01C481849C8601B48C8601648006A050A2D02254314483F
:20098000056240690121490408431149486100BF0F4800690121090408400028F8D10C484F
:2009A0004069C90208430A49486108464069890408430749486100BFBFF34F8F09480A49C1
:2009C000C860BFF34F8F00BF00BF00BFFDE770BD0020024023016745AB89EFCD3B2A190869
:2009E0007F6E5D4C0400FA0500ED00E010B5002819DB1A4A03231B02D21883089B00D258CF
:200A00008307DC0EFF23A3409A438B071B0E8407E40EA3401A43114B032424021B1984089F
:200A2000A4001A5118E00E4A03071B0F083B9B089B00D2588307DC0EFF23A3409A438B0790
:200A40001B0E8407E40EA3401A43054B0407240F083CA408A4001A5110BD000000E100E095
:200A60001CED00E010B5002415E00C48406901218902084309494861642000F011F80748F3
:200A8000406901218902884304494861642000F007F8601CC4B2032CE7DB10BD00040050C8
:200AA00008B505490968009100BF00990918024A12689142F9D808BD00000020F0B5034673
:200AC0000A4600241249002A02D1C84380B2F0BD002012E01D5C694000250AE0CE07F60F43
:200AE000002E04D04E080B4F7E40314600E049086D1C082DF2DB451CA8B29042EADBC943F5
:200B00000C46080225042D0E2843014688B2DEE7FFFF0000088400000D48406B032108436B
:200B20000B4948630B480068032109058843094908600846006889020843064908600846B3
:200B400040690121890288430249486170470000001002400004005070B58820FFF7E2FE80
:200B600072B60648446825460146086880F3088800BF084602498860A84770BD00180008B2
:200B800000ED00E0F0B5B5B007460D4616461C46B02109A8FFF7E7FB09AA8021384600F004
:200BA000ABF8002E02D0012E24D106E00A2209A9284600F048F835B0F0BD002C00D1FAE79C
:200BC000202101A8FFF7CFFB1022294601A8FFF76BFB0A2209A9284600F035F810231A46C9
:200BE0002146284600F076F8102201A92046FFF75BFBE0E700BFDEE708B503786A4613707E
:200C000003795370037A9370037BD3700422521A9207920F6B469A5C02700422521A521C6F
:200C20009207920F9A5C02710422521A921C9207920F9A5C02720422521AD21C9207920F73
:200C40009A5C027308BDF0B507460D461646344630014119384600F017F808E0601EC4B265
:200C600020014119384600F0E7F8701EC6B2012EF4DC002405E0385D295D48403855601CF2
:200C8000C4B2102CF7DBF0BD70B505460E46002405E0285D315D48402855601CC4B2102C10
:200CA000F7DB0121681CFFF7A7FF0221A81CFFF7A3FF0321E81CFFF79FFF002405E0285D57
:200CC0000349085C2855601CC4B2102CF7DB70BD58140008F0B504461D468C4200D81546F3
:200CE000002005E0265C0F5C7E402654461CF0B2A842F7DBF0BD0000F7B586B00E461746CA
:200D000000200390F004050EE81D8006000E0590F017400F8019C210019638460699FFF780
:200D2000C3FA04952C4657E0601E8000385802900498844220D0082D45D12046E117490F41
:200D40000918C910C900611A04293CD16846007A2449095C68460172407A2249095C6846C8
:200D60004172807A1F49095C68468172C07A1D49095C6846C17226E004984019C0B2049071
:200D800002A800F033F86846007A1649095C68460172407A1349095C68464172807A114951
:200DA000095C68468172C07A0E49095C6846C172007A0D4A0399515C4840694608720398F0
:200DC000401CC0B20390601B8000385802994840A1007850601CC4B205988442A4DB09B00E
:200DE000F0BD0000581300085815000801784278027082784270C2788270C170704770B5D4
:200E000003460020002413E0CE07F60F002E02D006465E40304680261D4635405E06330EF5
:200E2000002D02D01E46564033464910661CF4B2082CE9DB70BD0000F3B586B0054600244D
:200E400007E0295D0798005D414002A80155601CC4B2102CF5DB002482E0A000C01C02A9FD
:200E60000F5CA100891C02AA515C4F40A000401C02A9085CA100515C484001900198784016
:200E800006461B2231460920FFF7B9FF0646A000801C02AA105CA20002AB9A5C50400146BF
:200EA0001B220420FFF7ABFF70400090A000C01C02AA105CA200521C02AB9A5C50400146D3
:200EC0001B220420FFF79BFF4640A00002AA105CA200D21C02AB9A5C504001461B2202207A
:200EE000FFF78DFFA100C91C02AA515C71404840A100C91C68541B2239460220FFF77FFFC4
:200F0000A100891C02AA525C00994A405040A100891C6854A000801C02AA105CA200521C18
:200F200002AB9A5C504001461B220220FFF767FFA100491C02AA515C71404840A100491CDE
:200F400068541B2202200199FFF759FFA10002AA525C00994A405040A1006854601CC4B291
:200F6000042C00DA79E70121681CFFF745FE0221A81CFFF741FE0321E81CFFF73DFE00248F
:200F800005E0285D0449085C2855601CC4B2102CF7DB08B0F0BD000058140008024800682E
:200FA000401C0149086070470800002001461148026814E00F4800680F4BD31898420ED981
:200FC0000E48C06902231840002804D00B48006A18430A4B18620020087001207047074873
:200FE000C069202318400028E4D00448406A08700020F3E7080000208813000000380140AD
:2010000000BF0449C969402211400029F9D00149886270470038014010B504461A48406B6D
:2010200001210843184948630520000700680F21890488430521090708600846006849126C
:201040000843490208600846406AFF21113108430521090748620C48403000680121890333
:20106000084309494031086021460848FFF77DF90749C860052000038860084600680D216B
:2010800008430349086010BD001002400024F400003801400021014A1160704708000020E5
:2010A0007047000010B50448FFF7F4FF0446034A0349FFF793F810BD040000200000000822
:2010C000A1100008F0B58BB0FFF78CFB7D24E401601E9249884201D901200CE0601E904913
:2010E00048610321081FFFF781FC00208C498861072008610020002802D000200BB0F0BD79
:201100008848406B0121084386494863FFF704FD0E2285A18848FFF777F8002801D10120D0
:2011200000E000200A900A9800280AD0002006900790089009900F2206A97F48FFF75AFB01
:2011400000BF4B200002FFF767FFE5E07B484069012189028843794948610020099009A889
:20116000FFF724FF002805D00A98002800D0D3E0FFF7F2FC01200A9008A80079BA2800D092
:20118000CAE009A8FFF712FF002800D0C4E008A80079FB2801D1FFF7DFFC08A80079BF2852
:2011A00000D0B9E066496748FFF7DBF80024002620E064490819FFF7F9FE002801D001267A
:2011C0001AE06048005DBA280ED10020029002A8FFF7ECFE002801D001260DE06846007ADE
:2011E000002800D0012600BF601C84B25448844200D301E0002EDCD000BF002E06D0BA20D2
:20120000FFF7FEFEC220FFF7FBFE85E04E48477C0146097C09020F43812109014948FFF7F1
:201220004DFC0546BD4206D0BA20FFF7E9FEC220FFF7E6FE70E00020059006900790089008
:2012400002900DE03F490298081805AB0122014601903E48FFF796FC0298103080B2029076
:201260008121090102988842ECDB36484078354909780902084307460020324948700870F4
:201280002F49091F2F48801CFFF718FC05462D48C0782C498978090208430490BD4203D166
:2012A0002B490498884206D0BA20FFF7A9FEC220FFF7A6FE30E02148406901218902084371
:2012C0001E4948611F48C0791E498979090208431C494979090408431A49097909060843E1
:2012E00003903B21C9020398884206D9BA20FFF787FEC220FFF784FE0EE0164A03998818B7
:20130000121410491031FFF775FABA20FFF778FEC120FFF775FE00BF18E70000FFFFFF005D
:2013200000E000E0001002407A6572644067656E657261746F720000F0FF01080004005093
:20134000120800000C0000200C08002062150008717A000000180008637C777BF26B6FC527
:201360003001672BFED7AB76CA82C97DFA5947F0ADD4A2AF9CA472C0B7FD9326363FF7CCAF
:2013800034A5E5F171D8311504C723C31896059A071280E2EB27B27509832C1A1B6E5AA008
:2013A000523BD6B329E32F8453D100ED20FCB15B6ACBBE394A4C58CFD0EFAAFB434D33858A
:2013C00045F9027F503C9FA851A3408F929D38F5BCB6DA2110FFF3D2CD0C13EC5F974417F2
:2013E000C4A77E3D645D197360814FDC222A908846EEB814DE5E0BDBE0323A0A4906245CC3
:20140000C2D3AC629195E479E7C8376D8DD54EA96C56F4EA657AAE08BA78252E1CA6B4C604
:20142000E8DD741F4BBD8B8A703EB5664803F60E613557B986C11D9EE1F8981169D98E9491
:201440009B1E87E9CE5528DF8CA1890DBFE6426841992D0FB054BB1652096AD53036A5385F
:20146000BF40A39E81F3D7FB7CE339829B2FFF87348E4344C4DEE9CB547B9432A6C2233D80
:20148000EE4C950B42FAC34E082EA16628D924B2765BA2496D8BD12572F8F6648668981607
:2014A000D4A45CCC5D65B6926C704850FDEDB9DA5E154657A78D9D8490D8AB008CBCD30AF4
:2014C000F7E45805B8B34506D02C1E8FCA3F0F02C1AFBD0301138A6B3A9111414F67DCEA89
:2014E00097F2CFCEF0B4E67396AC7422E7AD3585E2F937E81C75DF6E47F11A711D29C58974
:201500006FB7620EAA18BE1BFC563E4BC6D279209ADBC0FE78CD5AF41FDDA8338807C7316A
:20152000B11210592780EC5F60517FA919B54A0D2DE57A9F93C99CEFA0E03B4DAE2AF5B0F8
:20154000C8EBBB3C83539961172B047EBA77D626E169146355210C7D010204081020408061
:201560001B36C878EA3C37AA588C8C1CE15D66A8B0BD000098150008000000200C000000AD
:20158000FC000008A41500080C000020740E00001801000811FBFFFF0000000000000000AD
:0415A0000000000047
:20380000F0220020991A0008A11A0008A31A00080000000000000000000000000000000033
:20382000000000000000000000000000A51A00080000000000000000A71A00086965000822
:20384000AB1A000800000000AB1A0008AB1A0008AB1A0008AB1A0008AB1A00081D3E000837
:2038600000000000AB1A0008AB1A0008AB1A0008AB1A0008AB1A0008AB1A0008000000007A
:20388000E165000841660008AB1A0008AB1A0008AB1A0008AB1A0008AB1A000809460008D3
:2038A00029480008AB1A0008AB1A0008596E0008AB1A0008AB1A000800F002F800F0C1F8F9
:2038C0000CA030C8083824182D18671EA246AB4654465D46AC4201D100F0B3F87E460F3E7C
:2038E000B6460FCC0126334200D0FB1A3343A246AB461847D4490100F4490100103A02D347
:2039000078C878C1FAD8520701D330C830C101D504680C607047000000230024002500264F
:20392000103A01D378C1FBD8520700D330C100D50B60704710B56E2902D100F0D1FB10BD91
:20394000702902D100F00BFD10BD662902D113F00BF810BD652902D113F006F810BD672942
:2039600002D113F001F810BD612902D113F004F810BD03681B0A01D380231943692902D1BA
:2039800000F078FB10BD642902D100F073FB10BD752902D100F06EFB10BD6F2902D100F07A
:2039A00089FC10BD782902D100F0C6FC10BDE92902D100F025FC10BDE42902D100F020FC13
:2039C00010BDF52902D100F01BFC10BDEF2902D100F07CFC10BDF82902D100F0BBFC10BDCD
:2039E0000368DB0901D380231943632902D101F0B2F910BD732902D101F0B5F910BDE329F6
:203A000002D101F0BFF910BDF32902D101F0C2F910BD002010BD1FB501F022FA0400002003
:203A2000002112F08BFF401C60600020002112F06FFFE0600FBC01F0CBFD0FB41FBD10B5E4
:203A400010BD01F0E6F91146FFF7E5FF0CF076F801F07AFD03B4FFF7F2FF03BC06F065FD11
:203A600070B505460C46164602E00FCC0FC5103E102EFAD2082E02D303CC03C5083E042E25
:203A800007D301CC01C5361F03E021782970641C6D1C761EF9D270BD07488047074800470E
:203AA000FEE7FEE7FEE7FEE7FEE7FEE704480549054A064B70470000D1650008B9180008A0
:203AC000F01A0020F0220020F01E0020F01E0020704700000FB41CB5084B06AA7B44694672
:203AE0000090059800F015FB04460020694600F023FB20461CBC08BC04B0184759060000FE
:203B0000002800DA404270470EB5044615460E4612A000F0FFFC204600F0FCFC15A000F01E
:203B2000F9FC304600F0F6FC14A000F0F3FC6C460020E0720A20A0720A3407E00A21284687
:203B400000F056F930310546641E2170002DF5DC204600F0DFFC00F0D3FC00002A2A2A20DB
:203B6000617373657274696F6E206661696C65643A2000002C2066696C6520002C206C6961
:203B80006E652000034670B502460B439B070FD10E4CE60100E008C208C91D1B9D43354261
:203BA000F9D0D9B21170521C00290DD01B0AF8E70B78491C1370521C002B05D00B78491CF7
:203BC0001370521C002BF3D170BD00000101010130B5441C03E00178401C00290DD0810749
:203BE000F9D10B4BDD0104C8D11A91432940FAD0001B0A0603D0C01E30BD001B30BD0A042A
:203C000001D0801E30BD0902FCD0401E30BD000001010101F8B5042A2CD3830712D00B7859
:203C2000491C0370401C521E83070BD00B78491C0370401C521E830704D00B78491C03709B
:203C4000401C521E8B079B0F05D0C91ADF002023DE1B08C90AE0FFF703FFF8BD1D4608C9ED
:203C6000FD401C46B4402C4310C0121F042AF5D2F308C91A521EF0D40B78491C0370401C83
:203C8000521EEAD40B78491C0370401C012AE4D409780170F8BDD2B210B513029A1813048E
:203CA0009A1800F00EF810BD01E004C0091F0429FBD28B0701D50280801CC90700D0027030
:203CC000704700290BD0C30702D00270401C491E022904D3830702D50280801C891EE3E766
:203CE0000022EEE70022DFE7F8B507460B4639461943890713D1164CE601042A0FD302CB25
:203D00000D1B8D43354202D102C0121FF5E7CBB20370401C521E002B13D0090AF7E7002AAD
:203D200014D01978521E5B1C0170401C002908D0002A0BD01978521E5B1C0170401C0029E6
:203D4000EDD1002A02D01146FFF7CAFF3846F8BD01010101024670B50A4392072AD11E4DA3
:203D6000EE0104C808C9541B9443344017D0D0B2D9B2401A2106014310D190B299B2401A7C
:203D8000210401430AD110021902000A090A401A2102014302D1100E190E401A70BD9A4259
:203DA000DFD010BA19BA884201D9012070BD0020C04370BD02780B78401C491C002A09D0B4
:203DC0009A4207D102780B78401C491C002A01D09A42EFD0D01A70BD010101010022030992
:203DE0008B422CD3030A8B4211D300239C464EE003460B433CD4002243088B4231D3030915
:203E00008B421CD3030A8B4201D394463FE0C3098B4201D3CB01C01A524183098B4201D36C
:203E20008B01C01A524143098B4201D34B01C01A524103098B4201D30B01C01A5241C308F2
:203E40008B4201D3CB00C01A524183088B4201D38B00C01A524143088B4201D34B00C01A54
:203E60005241411A00D201465241104670475DE0CA0F00D04942031000D3404253409C464D
:203E8000002203098B422DD3030A8B4212D38901FC2212BA030A8B420CD3890192118B4241
:203EA00008D3890192118B4204D389013AD0921100E08909C3098B4201D3CB01C01A524107
:203EC00083098B4201D38B01C01A524143098B4201D34B01C01A524103098B4201D30B015D
:203EE000C01A5241C3088B4201D3CB00C01A524183088B4201D38B00C01A5241D9D2430897
:203F00008B4201D34B00C01A5241411A00D201465241104663465B1001D34042002B00D581
:203F20004942704763465B1000D3404201B50549002802DC491C084000E00846C046C046E5
:203F400002BD00BFFFFFFF7F7047704770474146016049464160514681605946C16071463B
:203F600001611430F0C069460160001D01B5C046C04606BC964601C10020704704000D00B4
:203F8000A06AC046C046616A8D462200280000D10120116888465168894691688A46D16860
:203FA0008B4611698E461432F0CA7047704770B5044685690068C10601D5302600E0202696
:203FC000C00707D070BD62683046A1689047206A401C20626D1EF6D570BD70B504468569AE
:203FE0000078C00707D170BD6268A16820209047206A401C20626D1EF6D570BD09684A05E8
:2040000001D540B27047C905FCD500B2704709684A0501D5C0B27047C905FCD580B27047D2
:2040200070B50C460546012A05D02878800600D5EA69002302E0012305E05B1C934202D242
:20404000E05C0028F9D1A869E618C01AA861286AC01828622846FFF7AAFF04E06A682078F1
:20406000A968641C9047B442F8D32846FFF7B5FF70BD0000F7B5002575291068009914A698
:2040800011D0FFF7BBFF002802DA404211A608E0009909688A0701D50FA602E0490704D539
:2040A0000EA6012501E0FFF7B2FF009F0024243704E000F09AFE30313955641C0028F8D1B4
:2040C0002B4632462146009800F06BFAFEBD0000000000002D0000002B0000002000000070
:2040E00011680268006A530501D5087009E0D30501D5088005E0130602D5C21705C100E05A
:20410000086001207047000001694A1C02610878704700B58FB002910021059105490193D5
:204120007944039111460490684600F025F90FB000BD0000E5FFFFFF0A681070521C0A605F
:2041400070470000F7B50446154686B02B487844002703C83E460090019111E007986A461A
:204160007100415A02A800F019FE411C07D02178890603D5E269391891420ED83F18761C10
:204180002078800602D5E069B84206DDAE42E5DB07987100405A0028E0D1A069C01BA061EC
:2041A0002046FFF704FF154878445A3803C800900020019116E041006A460798415A02A81D
:2041C00000F0ECFD0590401C0AD0002505E0626802A8A168405D90476D1C05988542F6D38A
:2041E0000498401CB0420490E5DB206AC01920622046FFF7F2FE09B0F0BD0000362801008B
:20420000F7B5D21D0025D20815A6D200F52905CA11D0002A05DA00214042914111A60A4624
:2042200008E0009909688B0701D50FA602E0490701D50EA601251146009F0024243704E034
:2042400000F072F930323A55641C02460A43F7D12B4632462146009800F0A3F9FEBD000006
:20426000000000002D0000002B0000002000000070B504460021243408E05507D2086D0F44
:20428000303565545D072A43DB08491C15461D43F3D10468002310A2250708D520252C406D
:2042A0000C4304D0C46901230CA2641EC46100F078F970BD10B5044621461068FFF7A7FE1E
:2042C000002302462046FFF7D3FF10BDD21DD108C9000CC9CCE7000000000000300000002F
:2042E000F8B50F460188090502D5224C7C4402E0204C7C440E3405460021243508E0160706
:204300001209360FA65D6E541E0732431B09491C16461E43F3D1224604780023240705D5C8
:20432000702F06D0002901D00223113200F039F9F8BD01231032F9E770B504460D46214660
:204340001068FFF764FE0023024629462046FFF7C7FF70BDD21DD308DB000CCBC0E730B45D
:20436000036820241268234303600823C36130BC0023B5E7A0260100F3B50446002081B047
:2043800020622046E1688847002872D0252802D06268A168ABE0594F00267F442046E168F6
:2043A00088472028054608DB312D06D2781920380078002801D00643F0E7B00701D5042057
:2043C00086430020E0610746A0612A2D0AD0284612F096FA002827D0B8000019303D009047
:2043E000856119E00298BA00121902C8916102902046E1688847012F054617D1E0690028BF
:204400001FDA202086431CE000980A218069484300994019303888612046E168884705465B
:2044200012F06EFA0028EFD1012F0AD02E2D08D12046E16888470546202006437F1C022FCE
:20444000C3DBA069002803DA4042A06101200643F00701D0102086436C2D0BD0682D09D020
:204460004C2D3CD06A2D38D0742D38D07A2D36D016E040E0E1682F4620468847B842054674
:2044800009D16C2F29D001208002E168064320468847054604E06C2F1DD0FF2001300643F4
:2044A000002D28D028464138192803D80120C00206432035204626602946029A1646FFF70A
:2044C00039FA002810D001280BD0F61DF008C0000830029055E74020E1E78020D5E7002028
:2044E000D3E7361D02964CE762682846A1689047206A401C44E7206AFEBD00001A26010035
:2045000010B5002000F06BFCFFF799FA012006F00CF810BD10B5044602E0641C06F009F886
:2045200020780028F9D110BD0B4670B5024689078008084319469D08141AA94125090807AA
:20454000054308092C194841250A01060D43010A2C194141200C0D0428430D0C00194D4174
:20456000002140194D41C00869070843E908840F8D002543840024184D4124196D41121BD1
:20458000AB4107E00925ED432C11521963410024401C61411C460A250026551BB441F1D29D
:2045A00070BDFFB504460D4681B0243000902168880604D51022E0699143216000E00120A7
:2045C000A84201DD471B00E000270498A1697A191018081AA0612078C00602D42046FFF796
:2045E000E6FC002608E003986268A168805D9047206A401C761C206204988642F3DB2078E5
:20460000C0060AD52046FFF7D2FC06E06268A16830209047206A401C206238467F1E002840
:20462000F4DC07E000986268A168405D9047206A401C206228466D1E0028F3DC2046FFF730
:20464000CCFC2078000602D5022005B0F0BD0120FBE70000FFB50C461E468FB003CA089088
:2046600009914F007D0D00D16D1E002108460020C0460321099A89050840002A03DA8200B0
:20468000801840080840800D01280A9002DD0020C0430A90089807430DD0F048F04928188E
:2046A00048430714189800281DD07542291E1DDD0A9842421BE01898012802D0002030215A
:2046C00004E00020F24305E02154401CB042FBDB30460022189B002121540F998B600A6045
:2046E000486013B0F0BDBD1B6D1CDFE70A9A002900DA69420BA800F0FBFB0BAB07CB03AB5A
:2047000007C30899099800F05FFC6B4607C30146D4480918002D00910BDDD24903980A9A43
:2047200049424018002303A90390684600F0BCFE08E003990A9A0023081803A90390684684
:2047400000F05CFE6B4607C30004000C03D00020C043410800E01046189A002A03D000223E
:20476000009215461EE0751E05D4FFF7DDFE303262556D1EF9D501220843079602D00022A0
:204780007F1C04E02078302801D100227F1E002A069787D01EE0112D07DAFFF7C5FE3032C3
:2047A00062556D1C02460A43F5D1084303D00098002819D00EE00021681E05E0235C625CE0
:2047C00063542254401E491C8142F7DBA81B401E07950690079A18990020A0540F98079B52
:2047E000069A81600CC07CE711260020189059E7D21DF0B50D460446D10893B0C90003C9E8
:204800000C900D9112F066F802460D98C00F01D02D2007E02068810701D52B2002E04007E3
:20482000C00F4001032A0F9001D0072A05DB03462946204600F018FB0EE12078800601D5B6
:20484000E76900E006272846652D04D0662814D0672D69D12DE00020112F009001DB1123DA
:2048600000E07B1C0CAA03A910A8FFF7F3FE1199002610987D1C0E9142E001203B460CAA96
:20488000C0070B900120009003A910A8FFF7E2FE119D12981099002600280E9501D1781C73
:2048A0000D18781B02D446427D1C761EE81B00903AE0012F00DA01270020112F009001DD08
:2048C000112300E03B460CAA03A910A8FFF7C2FE11993D46109800260E91217809070BD451
:2048E0000E99A94200DA0D4603A9012D04DD4A19203AD27F302A06D0B84201DA011D04DA2F
:20490000012100910FE06D1EEFE7002802DC86192D1A03E0411CA94200DD0D46801B401C56
:2049200000900120C0070B902078000705D40098A84202DB0020C043009069460020C872D1
:204940000B98012102AF0337C907884225D0022010902B2011900B9800280BDA40420B909D
:204960002D20119006E00B9800F03FFA30317F1E0B9039701099481E00291090F3DC0B980B
:204980000028F0D111987F1E38702088000501D5452000E065207F1E387001A8C01BC01D4D
:2049A0000B900F98002800D0012041190098C01709180B980818A169081A401EA0612078CC
:2049C000C00602D42046FFF7F2FA0F98002805D06268A1689047206A401C20622078C006DF
:2049E00025D52046FFF7E3FA21E0002E07DB0E98B04204DD03A86268805DA16802E06268F3
:204A0000A16830209047206A761C401C20620098401E002800900AD100F022FAC0686268E5
:204A20000168405CA1689047206A401C206228466D1E0028D9DC07E062683878A1687F1C4E
:204A40009047206A401C20620B99481E00290B90F2DC2046FFF7C1FA032042E601FCFFFF1E
:204A6000104D0000E1DFFFFFD21DF0B504460D46D0088DB0C000466807683146384611F002
:204A800029FF0246F00F01D02D2307E02068810701D52B2302E04007C00F43016846002B56
:204AA000037001D0012000E00020032A0A9001D0072A04DB2946204600F0D6F92DE12078AF
:204AC000800601D40D2500E0E5697000400D0D2D01904BDA300D00210B9008460020C04601
:204AE000032189050840002E05DA82008018C20F1018401008408015012801DD0020C04345
:204B0000A9000023182906D39C460A460123183A1B07D34003E001221205CA4094460C3194
:204B2000202902D33A46203900E032468A40002802DD002A06D119E0002817D10121C90759
:204B40008A4213D3194663467F185E41002806D10120C007824202D1084687439E430B984B
:204B6000310D814202D00198401C01902088000502D57149794402E06F49794419396B4687
:204B80000A9830221A540A980A7C401C1A54401C0A900198002801DC302000E03120187222
:204BA000019A0120002A02D0644BD21804E072003A4302D0614A521C0192002D02DC2278AE
:204BC000120703D56A462E20507202200022864694460CE032033601120F6D1E8B5C02AAA3
:204BE00013546246521C401C9446052A01DA002DF0DC002202AE08E03B0F3F01CB5C521C26
:204C00006D1E3354401C082A01DA002DF4DC23689A0601D511E0401E704504DD3218203A92
:204C2000D27F302AF7D0002807DD3218203AD27F2E2A02D11A0700D4401E002D03DD3E2216
:204C40003254401C6D1E497C31540199401C002906DA2D21471C315401984042019003E0D9
:204C60002B21471C315401987D21C900884206DBFFF7BEF83030F0557F1C019101E064286A
:204C800008DB01986421FFF7B3F83030F0557F1C019101E00A2806DB01980A21FFF7A8F852
:204CA0003030F0557F1C01980A21FFF7A1F83031F1550A98A1697F1C7A191018081AA06195
:204CC0002078C00602D42046FFF771F9216A6E460A980818206204E062683078A168761C66
:204CE00090470A98401E0A90401CF5D12078C00602D52046FFF75BF902AE09E03078761C69
:204D00003E280DD06268A1689047206A401C20627F1EF3D22046FFF760F90DB00320F0BD9A
:204D2000206A4019206203E06268A168302090476D1EEDD3F8E70000641E010001FCFFFF89
:204D400010B54369002B02D0C046C04601E0FFF767F9012010BD1278014624310A700022F2
:204D60004A700122ECE711680022D243E8E710B54369002B02D0C046C04601E0FFF7E2F9D8
:204D8000012010BD12880146243182840022C2840122ECE711680022D243E8E7F8B5164603
:204DA0000C46054600F054F80368FF200230C05C012807D0FF2C0FD8185D00280CD0012096
:204DC0002C70F8BDFF333246214608331868C71828460023B847F8BD0020C043F8BD10B5F5
:204DE00000F0C0FB00F0B8FB10BD01468008081A02091018020A1018020C1018C0088200C0
:204E000012185200891A01E0401C0A390A29FBD27047754600F0BEFBAE4605006946534697
:204E2000C008C000854618B020B5FEF73FFE60BCB64600260027C0C5C0C5C0C5C0C5C0C552
:204E4000C0C5C0C5C0C5403D490849008D46704710B500F005F8001D10BD00BFE11A0100CB
:204E600000487047C0000020F8B51F46044601230068DB02032601461840072A05DB00288D
:204E800001D017A506E017A504E0002801D016A500E016A5102081432160A069C01E002F25
:204EA000A06101D0401EA0612046FFF780F8002F09D038466268A1689047206A401C206255
:204EC000C01C206206E0206AFAE762682878A1686D1C9047761EF8D22046FFF77EF8F8BD6B
:204EE0004E414E006E616E00494E4600696E6600F7B516468AB0334878446C4603467C335B
:204F0000C06F5A689B680DC42E487844763003AC0DC80DC43720C001081837211B30FEF7CF
:204F200067FF05460C46803D1B3C02D56442012000E000200027099010E0E0070CD00C201D
:204F400020497843794432464C3941186846012300F054FA6B4607C364107F1C002CECD197
:204F6000184F7F442E3F16E0E80712D02001C0190EC80691089307920068F04201D198191B
:204F800008903246012306A903A800F037FA03AB07C36D10641C002DE6D10998002806D06A
:204FA00032466946012303A800F07EFA05E001233246694603A800F021FA0A9B07C30DB081
:204FC000F0BD0000F41A0100034640000A4610B5400D0BD00121C9070F24A40200191C034C
:204FE00064082143540D2143D20207E000210120F2E7D40F490021435200401E0029F8DA0B
:20500000DB0FDB07184310BDFFB50D46144685B04868516811F046FC00910190A868A1681F
:2050200011F040FC02910390A868616811F03AFC029A12188242029201D2012000E00020EB
:20504000019A0B18D2180028019202D08A4202D903E08A4201D2012000E000200099081818
:2050600000906868A16811F01DFC029A12188242029201D2012000E00020019A0B18D218F3
:205080000028019202D08A4202D903E08A4201D2012000E0002000990818009028682168D7
:2050A00040004900400849084018FA49471814E001994000C90F08430090019802994000DF
:2050C000C90F08430190029803994000C90F08430290039840007F1E039000980028E7DA65
:2050E0000898002801D0EC4E00E00026B74201DA012000E00020002804902AD0F71BF8061C
:20510000C00E15D0029B2021091A039A8B401A430392029A019BC2408B401A430292019AF0
:20512000009BC2408B4000991A430192C14000917B110DD06F460320C11A03D50021820055
:20514000B95003E08A008100BA587A50401EF3D5374603980299002800D0012001430898A6
:205160000291002808460CD0002800D001200199019A490508430121D20AC902D202019233
:2051800000E001210E9B0122D207012B02D0002B03D013E0002807D120E0904204D89042F9
:2051A0000CD1019B0B4209D0019B5918019105D10099491C009101D17F1C009200280DD048
:2051C000102108460020C0460498002806D00F98002803D0082108460020C0462868216838
:2051E000019B009A4840C10F0598C90739430EC009B0F0BDFFB587B0099A0898089953687A
:2052000092684068896896460022039317469446089A12685300099A5B0812685200520895
:205220009A1A9E4BD4180A9A002A01D0352200E0402206920022012315460492DB07059364
:2052400024E0002D05D175460346039E4D1BB34109D375466646039B491B049D9841059BE7
:205260007519AC465F4163463B4308D0059B049EDD0776082E435B080496059301E0521E14
:20528000641EC50FED0749184041521C069B9A42D7DB002D04D17546039A6B1A824101D2D0
:2052A00003200CE0039A0B466B404240134303D0014303D0012002E0022000E000206146B8
:2052C00001910021009702910A99002905D0614640020143704B019102E0800700230290B8
:2052E0009C4201DA012000E0002007003AD01A1BD006C00E15D0029D2021019C091AC54060
:205300008C402543029C8C4000D001242543019C0295009DC4408D4000992C430194C14052
:20532000009154111DD06D460221002202290CD10320001B07E0002804DB8600AE59002EA3
:2053400000D00122401C0328F5DB081B02D588002A5004E08000285810438A00A850491EE7
:20536000E3D51C460A98002802980CD0002800D001200199019A490508430121D20AC90223
:20538000D202019200E00121109B0122D207012B02D0002B03D013E0002807D11FE090423D
:2053A00004D890420CD1019B0B4209D0019B5918019105D10099491C009101D1641C0092B8
:2053C00000280CD0102108460020C046002F06D01198002803D0082108460020C04608983E
:2053E0000999019A009B006809684840C10F0798C907214382600AC00BB0F0BD00B585B0D3
:20540000019300920A460146002302A8FFF7FCFD02A807C805B000BDFFB50A461F4685B08A
:205420000799019301230091014602A8FFF7ECFD02990398049ECA0F4900D20700920F221D
:20544000490892028C1A0021002800DB0C46450013486D08844214D3079A002A04DA441E7E
:205460000026104DF64302E004460D460E46102108460020C046002F03D004210846002063
:20548000C0462005E90A0843009908436905F20A1143ADE602C0FFFF013C0000FF3F000033
:2054A000FF070000FFFFFF7F00B585B0019300920A460146002302A8FFF79CFE02A807C8ED
:2054C000A8E7FFB50A461F4685B00799019301230091014602A8FFF78DFE02990398049E6C
:2054E000CA0F4900D20700920F22490892028C1A0021002800DB0C46450011486D08844214
:2055000014D3079A002A04DA441E00260D4DF64302E004460D460E46102108460020C04668
:20552000002F03D0042108460020C0462005E90A0843009908436905F20A114358E600008D
:20554000FF070000FFFFFF7F10B50446C046C0462046FEF77FFA10BD10B5002801D004F05B
:20556000E4FF10BD10B5002102A000F017F8012010BD0000534947414252543A2041626E8F
:205580006F726D616C207465726D696E6174696F6E00000000487047A000002070B50546F7
:2055A0000C460A2000E06D1C04F0C3FF002D06D028780028F7D102E0641C04F0BAFF002C82
:2055C00002D020780028F7D10A2004F0B2FF70BD10B500F03AF810BD10B5012805D00021DD
:2055E00003A0FFF7DBFF012010BD09A1F8E7000053494752544D454D3A204F7574206F66D2
:205600002068656170206D656D6F7279000000003A2048656170206D656D6F727920636F90
:2056200072727570746564000246C91C09CA8908083A89001B1A8B4201D200207047411803
:20564000C91DC908C90011607047F3B587B000276946FF240097013407A80F732146FFF770
:20566000E3FF0028029001D100F079F80298214604F056FF06000AD0029D01200690019545
:205680003478761C002F0DD05C2C12D018E00299084608300860002048600C6820700120E8
:2056A00009B0F0BD222C01D0272C0FD12746009431E03078222807D05C2805D0272803D0DC
:2056C000BC4203D1002726E0761C0446002C0AD0002F05D1202C06D020460938042802D914
:2056E0002C706D1CCCE70198854202D10098002811D000202870009A01996D1C03A8C046D8
:20570000C0466846007B00280FD0019D002000900698401C0690002CB2D10698810007A8F8
:20572000FFF782FF040002D004E00195EEE7002000F015F802982060029A002006E011786B
:20574000521C002902D1401C81006250AA42F6D300218200A1502146A2E77047704710B5E4
:20576000FFF73AFFFFF7F8FE10BD000080B584B0039002910E490D2000F030F901A90870F3
:20578000087803280FD1FFE7094801880090084600F06EF8039908800098008800F073F8EB
:2057A00002990880FFE701A8007804B080BDC0460003002080B584B0039002910E490F2090
:2057C00000F00CF901A90870087803280FD1FFE7094801880090084600F089F903990880F3
:2057E0000098008800F078F902990880FFE701A8007804B080BDC0460203002081B001466A
:205800006A46108010887F229201104001B0704780B588B0014607AA108010880291FFF7AE
:20582000EDFF05A908800B88A848818903AA918001894089000440180390049A0399A54892
:2058400001900A200090012000F060F906A90870087808B080BDC04680B55E480021017084
:205860000248017001F0FAF980BDC046940A002081B001466A46108000988008FF229201FC
:20588000104001B0704781B001466A4610801078000201B07047000010B588B0014607AAB1
:2058A00010801088029100F01DF805A908800B8886480146A0318A8803ACA280A022805AFA
:2058C0004988090408180390049A0399814801900A200090012000F019F906A9087008781F
:2058E00008B010BD80B582B0014601AA10801088312804DCFFE701A832210180FFE701A877
:2059000000883221FEF76AFA4006400C02B080BDB0B588B02F4800781728039004D0FFE7BA
:205920000398FF2807D00DE007A80321017029480021017049E007A804210170254800219E
:20594000017042E023480078C00060490856002832D0FFE71F480178C9005C4A5118C988F1
:205960001D4B19800078C00011181B888C8804ADAC80105A4988090408180490059A0499F9
:20598000EF4801900A200090012000F0BFF806A908700878032805D1FFE70E480178491CFB
:2059A0000170FFE706A80078042804D1FFE70948FF210170FFE704E006480178491C01703A
:2059C000FFE707A802210170FFE707A8007808B0B0BDC0464A09002004030020B0B58CB02B
:2059E00002460BAB18700A911878C00037490B189C8807ADAC80085A598809040818079088
:205A000000202870089805A988800798059006980599CB4B01930A2300930C4B012404908E
:205A20002046049C0392224601F016F809A908700878032805D1FFE7044800880A990880D4
:205A4000FFE709A800780CB0B0BDC04606030020F0B58FB013460C4605460EAE30700DA8F4
:205A600001800CA802803078C00018490818C0880D9A1043164A10800C98178887431780B0
:205A80003078C0000E181288B788089009A887800898095A76883604711809910A99099EA7
:205AA000A74F01970A270097012007913146079E06923246069F05933B460494039500F0CD
:205AC00025F80BA9087008780FB0F0BD9C4F010808030020A33E010881B001466A461080D0
:205AE000107880012D229201801801B0704781B001466A46108000988008FF2292011040DF
:205B00002D229201801801B070470000F0B599B014460D461F9E1E9F079306901592149112
:205B2000159916AA91801499169113A9069A0A7012A9079A0A8011A90F7012995C4F39808E
:205B40005C490978012739400029059104D0FFE70598012828D08BE013A8007817990AAA45
:205B6000918016990A910B9A0A99754B01930A2300934F4B00F070FF0CA90870087803289D
:205B800005D1FFE74B480178491C0170FFE70CA80078042807D1FFE746480021017018A88B
:205BA0000421017080E063E017980FA9888016980F900020087013A8007811A909781F9A31
:205BC000109B08ACA3800F9B0893099B089C019200913949049121461A46049B00F03CFFEA
:205BE0000CA908700878032835D1FFE70FA840790EA908700DA800210170FFE70DA80078E8
:205C00000FA94979884217DAFFE70DA800782A49095C12AA105C0E9A531E81420392029336
:205C200001D00398029002980EA90870FFE70D98401C0DA90870E1E70EA80078002805D095
:205C4000FFE71C480178491C017003E01948FF210170FFE7FFE70CA80078042807D1FFE7F4
:205C600014480021017018A8042101701CE0FFE710480078FF2807D1FFE70E480021017061
:205C800018A8032101700FE00A480078062807DBFFE708480021017018A80421017003E0E5
:205CA00018A802210170FFE718A8007819B0F0BD0C0300200E0300200A030020B0B58CB0CE
:205CC00002460BAB18700A911878C0001B490B189C8807ADAC80085A5988090408180790C1
:205CE00000202870089805A988800798059006980599134B01930A230093124B022404905D
:205D00002046049C0392224600F0A6FE09A908700878032805D1FFE70A4800880A99088056
:205D2000FFE709A80078042804D1FFE70A9806490180FFE709A800780CB0B0BD844A0108EC
:205D4000A33E010810030020FEFF000080B582B00AF0B8FF0749086008687D21C900FEF78D
:205D60003DF802F0D7FB019004F0F8FB002002B080BDC0460000002010B586B013460C46D7
:205D8000059004A8018003A802800598816901221143816105980293019404F0EFFA06B0DA
:205DA00010BDB0B586B013460C46059004A8018003A90A8005998A690125AA438A610599AB
:205DC000029008460193009404F0D8FA0298018809B2002918D4FFE703A8008800B200280F
:205DE00012D4FFE704A8008800B205991022895E884209DAFFE703A8008800B205991222F0
:205E0000895E884201DBFFE705E005980921890104F08CFAFFE706B0B0BD000001208006AF
:205E200003490860034801682022114301607047180400500C18024080B584B003900291EB
:205E400001A802210170FFE7029803990979C840C007002827D0FFE70398007902F06CFF22
:205E6000694608700878032805D1FFE703980179491C0171FFE76846007804280CD1FFE7AD
:205E80000398017901228A4001681143016003980179491C0171FFE768460078022801D1EE
:205EA000FFE71EE004E003980179491C0171FFE7039800790E2813DBFFE7039800680028FF
:205EC00004D1FFE701A80321017003E001A804210170FFE70398002101710398016000E0B7
:205EE000B2E701A8007804B080BD84B013460390029101A80270684600210170FFE7684655
:205F0000007801A90978884210DAFFE7039802996A46127892008958884201DAFFE705E0F1
:205F2000FFE70098401C69460870E8E76846007804B0704781B000200090FFE70098800A17
:205F4000002809D1FFE70098074900220A54FFE70098401C0090F1E702480021016001B032
:205F60007047C046340500203805002080B58CB00B900020C14308910790FFE708F092FAE4
:205F80000899644808F08AF9FFE708F009FA09900020C0430890604808F081F85F480068DC
:205FA000002800D1AFE05D4800680A90FFE70A98008A4007002828D4FFE70A98008A80079C
:205FC00000287DD4FFE70998079988420CD3FFE70A9880680799884206D3FFE70A98806855
:205FE0000999884211D9FFE709980799884267D2FFE70A9880680799884206D2FFE70A98E7
:206000008068099988425BD8FFE70A98008AC007002824D0FFE70A98C06800281FD0FFE757
:206020000A98008A8007002813D4FFE709980A99CA6880188B68C01A0491114603920293C7
:20604000FDF7CCFE0399414302984118049A9160FFE70A98018A04229143018220E00A98AE
:206060004169814204D1FFE72C480021016013E00A988169406981610A9841698069416121
:20608000264800680A99884205D1FFE70A98406922490860FFE7FFE70A9800210182FFE7EB
:2060A0000A98006806900A98406805901A4808F007F806980599019008460199884764E739
:2060C0000A98008A8007002812D4FFE70A9880680999401A089988420AD2FFE70A988068DC
:2060E0000999401A0E490968FDF778FE0890FFE70A9840690A90FFE70A98084909688842FB
:2061000000D054E7FFE709980790034807F0D8FF34E7C046E81A00201C0A0020280A002062
:20612000A811002010B590B00F900F98018A4022914301820F984168096B0DAA0491114690
:20614000049A9047002801D1FFE758E20DA8C1880F221140C1800F9840688078C0070028B9
:2061600050D0FFE70F9840681621415E1422805E814223DCFFE704200DA9085E0F9949689F
:206180001822895E884206DBFFE70DA8C18801221143C18011E004200DA9085E0F9949680D
:2061A0001A22895E884206DCFFE70DA8C18801229143C18000E022E2FFE722E004200DA94E
:2061C000085E0F9949681822895E884206DCFFE70DA8C18801221143C18011E004200DA9CC
:2061E000085E0F9949681A22895E884206DBFFE70DA8C18801229143C18000E0FFE1FFE750
:20620000FFE7FFE70F9840684088800500282CD5FFE70F98008A8007002815D5FFE70DA8A2
:20622000C0880F99C9894840C007002806D1FFE70F98018A022291430182E0E10F98018A48
:206240000222914301820FE00DA8C0880F99C9894840C007002806D0FFE70F98018A022254
:2062600011430182CBE1FFE7FFE70F9840684088C00500280ED5FFE70DA8C088C007002816
:2062800008D1FFE70F9800890DA908800F984089488090E00F98C069002800D18AE00F984F
:2062A000C06906F04EFE0CA908800F98C06906F03BFE0BA908800F98406880784007002845
:2062C0003ED4FFE70F98C06906F035FE0146002803910ED0FFE703985A280BD0FFE703988D
:2062E000B42813D0FFE7872040000399814219D024E024E00D980AA908800C980DA94A88B6
:20630000D243101808800A98488018E00C980D99C94308180DA908800B984A88D2431018F0
:2063200048800CE00DA841880AAA11800B990D9AD243511841800A99018000E0FFE7FFE78C
:206340000F98008A4007002833D5FFE70DA8008800B2002804D5FFE70DA8002101800EE094
:206360000DA8008800B20CA9098809B2884205DBFFE70C98401E0DA90880FFE7FFE702206F
:206380000DA9085E002804D5FFE70DA8002141800EE002200DA9085E0BA9098809B288426D
:2063A00005DBFFE70B98401E0DA94880FFE7FFE7FFE7FFE7FFE70F98008A8006002805D561
:2063C000FFE70F9840682230029004E00F9840681C300290FFE70298099009980421405E16
:2063E000012821DBFFE70DA8018809B20F9A0823D35EC91A49430223C05E0A23D25E801AEB
:20640000404308180890089809990422895E4943884208D2FFE70F9800890DA908800F98C7
:2064200040894880FFE7FFE709980221405E012824DBFFE70F98008AC00700281ED0FFE79B
:206440000DA8018809B20F9A1223D35EC91A49430223C05E1424125F801A40430818089004
:2064600008980999C95E4943884206D9FFE70F98018A012291430182FFE7FFE70DA8C18822
:206480000F9AD289914306AA1180C0880F99C989814307A801801078C007002806D0FFE77A
:2064A0000DA8C18810221143C180FFE707A80088C007002806D0FFE70DA8C18820221143BB
:2064C000C180FFE706A800888007002811D0FFE70D980F9948820DA840880F99888207F0AC
:2064E0005FFF0F9988610F98018A012211430182FFE707A800888007002850D0FFE70F9808
:20650000008AC00700284AD0FFE70F98018A01229143018207F044FF0F998A69801A8861FE
:206520000F9880694B2189000190084607F0B2FD0199814219D8FFE707A800888007002837
:2065400006D5FFE70DA8C18880221143C180FFE707A80088C007002806D0FFE70DA8C1887F
:2065600040221143C180FFE7FFE70F9840684088C007002812D0FFE70F9880697D218900D3
:206580000090084607F086FD0099814206D3FFE70DA8C18880221143C180FFE7FFE7002067
:2065A0000590FFE70599174807F090FB0590002806D0FFE705980F990DAA01F0A7FDF1E7FF
:2065C00000200590FFE70F98059907F07FFB0590002806D0FFE705980F990DAA01F096FD71
:2065E000F1E70D980F9908810DA841880F9A51810E990F9A9181C0880F99C881FFE710B0B3
:2066000010BDC0464C03002081B0794800686946088008788007002827D5FFE77548407920
:2066200001280ADBFFE773484179491E41714179401880787149086016E06E48007901285E
:2066400011DBFFE76B48007800280CD1FFE76A4801684A1C026008786849086065480179AF
:20666000491E0171FFE7FFE7FFE768460088400600282BD5FFE75F480078002807D1FFE700
:206680005F48016801229203114301601DE05C4800684005002807D5FFE759480168012218
:2066A0009203114301600FE055480168FF221204914301600168534A1143016001680122E8
:2066C000520311430160FFE7FFE7FFE768460088400700280CD5FFE74B48006846490A6896
:2066E000531C0B60107043480179491E0171FFE768460088000600281DD5FFE73D48007942
:2067000001280BD1FFE73E480168012213069943016001681204114301600BE0384801681E
:20672000FF2212049143016001680122120411430160FFE7FFE7684600888006002807D50A
:20674000FFE7324820210160314800210170FFE768460088C00600280BD5FFE72B481021B8
:2067600001602B48042101702A480178491C0170FFE768460088400500280ED5FFE701207B
:206780008102224A1160224904220A702249088022480178491C0170FFE768460088800541
:2067A00000280ED5FFE701204102184A1160184904220A701849088019480178491C017017
:2067C000FFE768460088C00500280ED5FFE7012001020E4A11600E4904220A700E49088024
:2067E00010480178491C0170FFE701B07047C0461854004044090020240A0020285400407B
:206800000454004000040101245400401C5400403D0900201F0300203A0900201D03002027
:20682000190300201B03002081B07E4800686946088008788007002827D5FFE77A484079BC
:2068400001280ADBFFE778484179491E41714179401880787649086016E07348007901282D
:2068600011DBFFE77048007800280CD1FFE76F4801684A1C026008786D4908606A48017979
:20688000491E0171FFE7FFE7FFE7684600884006002836D5FFE764480078002807D1FFE7CE
:2068A00064480168012292031143016028E0614800684005002807D5FFE75E4801680122DC
:2068C0009203114301601AE05A48016801600168412292021143016053480079022807DBD3
:2068E000FFE7544801680122120611430160FFE7504801680122520311430160FFE7FFE7DD
:20690000FFE768460088400700280CD5FFE74A48006846490A68531C0B60107042480179CC
:20692000491E0171FFE768460088000600281DD5FFE73D48007901280BD1FFE73D48016885
:20694000012213069943016001681204114301600BE038480168FF221204914301600168E1
:206960000122120411430160FFE7FFE7684600888006002807D5FFE7304820210160304825
:2069800000210170FFE768460088C00600280BD5FFE72A481021016029480321017029481A
:2069A0000178491C0170FFE768460088400500280ED5FFE701208102204A11602049032229
:2069C0000A702149088021480178491C0170FFE768460088800500280ED5FFE7012041029D
:2069E000164A1160164903220A701749088018480178491C0170FFE768460088C005002828
:206A00000ED5FFE7012001020C4A11600C4903220A700D4908800F480178491C0170FFE764
:206A200001B07047185800403E090020200A00202858004004580040245800401C580040C1
:206A40003C0900201E030020380900201C030020180300201A030020F0B591B014460D46E5
:206A6000179E169F06900E920D910E990FAA91800D990F910CA9069A0A700B930AA90F7082
:206A800008A902230B706C4909780629059100D9C6E005987844007940008744030C204AD5
:206AA0005274B900654800686549086062480178491C0170BCE06148006861490968401A11
:206AC00009900998032809D3FFE75B480178491C01705A4800685A490860FFE7A8E006F024
:206AE000F3FF07A90870087800280AD0FFE707A80078032805D0FFE707A80078042805D1DE
:206B0000FFE74D480178491C017011E04B4800684B490968401A099009981F2807D3FFE71F
:206B200006F0C4FF44480178491C0170FFE7FFE77EE04448022101703F480178491C0170A1
:206B400076E03E4800683E4908600CA800783E49095C0FAA13785BB23C4CE35C3C4C205CCE
:206B6000548815790B9E5279029201960095049008461946049A234608F022FD2E490A781F
:206B8000521C0A7054E006F09FFF07A908700878002820D1FFE706F083FF002808D1FFE73F
:206BA00008A80321017024480178891C017011E024480178491E01700806002805D1FFE7F5
:206BC0001D480178491C017003E01B4804210170FFE7FFE71BE008A80221017007A80078F3
:206BE000042804D1FFE71448062101700EE01348006813490968401A099009981F2804D38A
:206C0000FFE70D4806210170FFE7FFE7FFE70FE008A80421017008480178491C017007E034
:206C200005480021017008A8017006F03FFFFFE708A8007811B0F0BD2C03002080030020B2
:206C4000300300203403002090500108846001089350010880B500F001F880BD0148002103
:206C6000017070473503002080B582B00190FFE70198403007F032FA0090002804D0FFE718
:206C8000009807F075F9F3E7019803F0D8F902B080BD10B586B013460C46059004A8018069
:206CA00003A802800498059908860398059948860398059988860598007E0007002801D571
:206CC000FFE7F7E00598C069002106F0CDF9801C02A908800598408A801E01A9088004A8A2
:206CE000008800B205991022895E1239884200DAD6E00598806B01A9098809B202AA12883A
:206D000012B2009008461146FDF772F80099814206DCFFE70598007E4007002800D4BFE0FB
:206D200003A8008800B213281ADCFFE70598C06B012814DBFFE702A8008800B20599CA6BDA
:206D4000101AC8630598C06B002804D5FFE705980021C163FFE7059803F010FBFFE79EE068
:206D600003A8008800B205991222895E1439884233DBFFE70598C16B806B02AA128812B2AC
:206D8000424301A8008800B2101A814224DAFFE702A8018809B2059AD36B5918D1630599AC
:206DA000CA6B896B008800B2484301A9098809B2401A82420CDDFFE70598816B02AA128833
:206DC00012B24A4301A9098809B2511AC163FFE7059803F0D3FAFFE760E003A8008800B28F
:206DE00005991222895ECA0F8918491088421EDAFFE70598C06B012818DBFFE70598C06BCD
:206E000001A9098809B2884208DDFFE701A8008800B20599CA6B101AC86303E0059800213B
:206E2000C163FFE7059803F0A9FAFFE735E00598C16B806B02AA128812B2424301A80088A6
:206E400000B2101A814227DAFFE70598C16B806B02AA128812B2424301A8008800B2400046
:206E6000101A814208DAFFE701A8008800B20599CA6B1018C8630BE00598816B02AA12889A
:206E800012B24A4301A9098809B2511AC163FFE7059803F073FAFFE7FFE7FFE7FFE709E0B8
:206EA000059804A9098809B203AA128812B200F060F8FFE706B010BD10B586B013460C46DA
:206EC000059004A8018003A802800598007E0007002801D4FFE74AE005983421405E03A958
:206EE000098809B2884242D0FFE70598C06B01900598C069002106F0B7F8801C029003A8C6
:206F0000008800B2059934228A5ECB6B101A1818C8630598C16B826B029B53431222805EA5
:206F2000181A801C81420BDBFFE70598816B029A4A431221415E891EC9438918C163FFE712
:206F40000598C06B002804D5FFE705980021C163FFE703980599888601980599C96B88423E
:206F600004D0FFE7059803F009FAFFE7FFE706B010BD10B58AB013460C46099008A8018001
:206F800007A802800999C96900220290084611460193009406F068F8801C03A908800998A4
:206FA000C06B029A13881BB2C018098809B2FCF71FFF05900598002806D4FFE70598099914
:206FC000896B884201DBFFE73DE00998006C069000200490FFE7069800282CD0FFE709988E
:206FE000007EC00700280CD0FFE705980499884206D1FFE7069881880122514081801AE04B
:2070000011E005980499884206D1FFE70698818801221143818005E006988188012291431C
:207020008180FFE7FFE7FFE70698006806900498401C0490CFE7099803F0A0F90998059953
:2070400009F0E2FDFFE70AB010BD10B584B013460C46039002A8018001A802800398007E45
:207060000007002801D4FFE722E003983021405E02A9098809B2401AFCF742FD04280CDC03
:20708000FFE703983221405E01A9098809B2401AFCF736FD052801DBFFE709E0039802A9EA
:2070A000098809B201AA128812B2FFF762FFFFE704B010BD80B584B0039002A80221017083
:2070C000344800780028009004D0FFE7009801283BD03FE0039830490978C840C0070028D3
:2070E00029D0FFE72C48007801F02AFC01A908700878032809D1FFE727480178491C017063
:2071000024480178491C0170FFE701A80078042810D1FFE72048017801228A401F490B6811
:2071200013430B600178491C01701A480178491C0170FFE708E018480178491C01701548B4
:207140000178491C0170FFE720E012480178491C01701BE00F48002101700F480078142862
:2071600013DBFFE70D480068002804D1FFE702A80321017003E002A804210170FFE7064805
:207180000021017005480160FFE7FFE702A8007804B080BD49030020480300205809002078
:2071A00010B588B00A46034607AC207006A801700292019300F0C8FA03A9087006984000FB
:2071C000039908430321084004AA107007984000039B1843084005A9087008780001054919
:2071E00008181178890041580348FEF725FE08B010BDC046004C01082003002080B584B0D5
:20720000029001910298019908F054FB002804D1FFE703A80021017009E0029803F09AF9A6
:20722000029809F0A9FA03A8FF210170FFE703A8007840B204B080BD80B582B001906D206B
:20724000002106F0DFFA0090FFE70098002818D0FFE70098406840888007002806D5FFE7C2
:207260000098008A4006002804D5FFE70098FEF759FFFFE7FFE700996D2006F0C3FA0090A5
:20728000E3E702B080BD82B00190009100980021016001980068002808D0FFE700980199AE
:2072A0004968086000980199486005E000980199486001990860FFE702B0704781B000900A
:2072C0000098002141600098016001B0704783B0019001980068002803D1FFE7002002909A
:2072E00009E0019800680090009800680199086000980290FFE7029803B0704780B582B097
:2073000001A80221017019480078002826D1FFE71749184A002001F0A7F969460870087838
:20732000032808D1FFE711480178491C017001A803210170FFE76846007804280DD1FFE781
:207340000A480178491C01700948002101800948018001A803210170FFE703E00348002154
:207360000170FFE701A8007802B080BD680300203E0300208A03002080B50EF073FC80BD2E
:2073800080B584B04D4800780328039000D98DE00398C0467844007940008744012A405CCB
:2073A0006D480021017046480078C00700281FD0FFE7FFE701200021FFF7F2FE032801D0B2
:2073C000FFE7F7E7FFE7012002900299FFF7E8FE032801D0FFE7F6E7642003F0BBFB00F0FD
:2073E00079F85D4901220A70344903220A70FFE760E05948002101703248008800280DD05D
:20740000FFE72F480078C007002807D0FFE72B48022101702B4800210180FFE74AE0FFE7D9
:2074200001200021FFF7BCFE032801D0FFE7F7E7FFE7012001900199FFF7B2FE032801D0C6
:20744000FFE7F6E700F046F8434901220A701B4903220A70FFE700F083F8194909780122B8
:207460008A43184909880A43002A1ED0FFE700F02BF8FFE700200121FFF792FE032801D045
:20748000FFE7F7E7FFE7002000900099FFF788FE032801D0FFE7F6E70A48002101802E4854
:2074A0000170064801210170FFE703E02A4800210170FFE7002004B080BDC0469D110020E2
:2074C0009D0300209E03002080B506F02FFD002080BD000080B584B009F02CFDFEF72AFDD0
:2074E00006F0B8FD164805F03BFE07F05FFE15480021039107F064FE13480168134A0290E3
:207500000846114604F006FF03F080F903F0B6FA03F0BCF91848019006F030FC019807F073
:20752000CBF902990A6802213223009010461A4604F02AFF04F084FD039804B080BDC04698
:2075400011610108804D010828030020FFFF0000014800787047C0466A03002000207047AF
:2075600080B505480A2106F06BFB0449086003F03BFB002080BDC046000500202C0A002046
:2075800080B584B061480078012801D1FFE7BBE05F480088C007002848D0FFE75C4800889D
:2075A0004007C00F002810D0FFE759480188042291430180039009F0E1FC04F044FE0398E8
:2075C0000188402211430180FFE751480088C006C00F002829D0FFE74E48006806F07AFAE0
:2075E0004D490880029109F0E7FB0298008806F023FA09F049FB4948008808F051FA08F039
:2076000055FA0EF0ADF942480188012291430180018880221143018001880222114301806A
:207620000188402211430180FFE7FFE7384800888007C00F00282CD0FFE7394800683949EB
:20764000884208D3FFE738480168491C0160344800210160FFE7344800683449C9688842B0
:2076600016D3FFE701200102314A11600190009203F046FA01980106009A11602A49002394
:207680000B6009F07BFC2548008808F009FAFFE7FFE71F4800880007C00F002815D0FFE79B
:2076A0002448012101601A48018810229143018001880222914301800188802291430180E7
:2076C0000188402211430180FFE7114800888006C00F002818D0FFE71748007832280DDBBF
:2076E000FFE7154800210170094801882022914301800188114A1140018004E00E480178DB
:20770000491C0170FFE7FFE704B080BD950A002028040020400A0020440A0020300400209F
:2077200008040020E70300000C040020480A0020180000501804005023040020FFFB00007C
:2077400080B508F063F880BD014800787047C0467303002080B582B004F0D4F801900EF09A
:207760001DFA0348008803490880002002B080BD180A0020D812002080B584B000200090D7
:207780000A21074B0390039A04F02CF805490870029103F0EBFB02990870039804B080BD53
:2077A000603B00001F04002080B584B00A46029001A801800298406DD549884205D0FFE78C
:2077C0000298D4490163039120E002984C21405C002805D1FFE70298CF490163039115E0D4
:2077E00000200090029801A9098809B209F0F0FE00900098002806D5FFE7009802990863B3
:207800000098039002E000980390FFE7039804B080BDC04681B000900098006B01B070478C
:2078200084B00A46029001A801800298406DB849884205D0FFE70298B649016303910FE0BB
:2078400002984C21405C002805D1FFE70298B2490163039104E00020009000980390FFE76F
:20786000039804B07047C04680B584B002900298406DA749884205D0FFE70298A549016359
:2078800003913AE002984C21405C002807D0FFE702981C4901630020C04303902DE06846DE
:2078A00000210180FFE7684600880299C968884220D2FFE7029842210022425202986946A0
:2078C000098809F009FD01900198002803D0FFE70B480190FFE70198002806D5FFE7019828
:2078E000029908630198039007E00098401C69460880D8E700200390FFE7039804B080BD60
:20790000D5D8FFFFD6D8FFFF80B586B00B46049003A8018002920498406DD849884205D0F7
:20792000FFE704987B490163059129E004984C21405C002805D1FFE704987749016305911F
:207940001EE0049803A9098809B201AA09F00CFE00900098002806D5FFE700980499086336
:20796000009805900CE004980199898903AA128812B2029B0DF000FF009000980590FFE75F
:20798000059806B080BDC04610B590B00C460E900DA801800C920B930E98406DB7498842CD
:2079A00005D0FFE70E985B4901630F91ACE00E984C21405C002805D1FFE70E9856490163F6
:2079C0000F91A1E00E980DA9098809B20AAA09F0CBFD09900998002806D5FFE709980E99FE
:2079E000086309980F908FE00A988068401C002803D1FFE70020049003E00A9880680490F0
:207A0000FFE7049808900B980128039004D0FFE70398022806D00AE00A9880690C99401826
:207A20000C9004E008980C9940180C90FFE70C98002805D5FFE70E98394901630F9163E0AC
:207A40000C980899884206DDFFE708980A99886132480990FFE70998002806D5FFE70998FE
:207A60000E99086309980F904EE00C98012804DBFFE70C98401E029002E000200290FFE7E6
:207A80000298FB21FCF7AAF907A908800888702803D8FFE70020019008E007A80088713800
:207AA0007C21FCF79BF9401C0190FFE7019806A908800A98008A098888421FD0FFE70E98FD
:207AC0000A99C9880122D203114306AA128805AB009300230BF090FA09900998002806D5F4
:207AE000FFE709980E99086309980F900CE006980A99088205980A99C881FFE70C980A9940
:207B000088610C980F90FFE70F9810B010BDC04615030920D8D8FFFFF0D8FFFFEDD8FFFFA1
:207B2000C8D8FFFFF0B58FB0179C169D159E149F0D900C910B920A930D98006D09900D9833
:207B400058210494039502960197FCF7CBF8FFE70D980C998A6882604A684260096801606C
:207B6000FFE709980D9908650D9801218A02C2600B980D9A50620B98090240180D990862E4
:207B80000A981499FCF7ACF808A8042101700A980899491E084007A90870087800280FD018
:207BA000FFE708A8017807AA1378C91A0A9B59180A9100781178149A081A10181490FFE763
:207BC0000A980D99886214982821FCF707F90D99C86215980899491E084007A90870087816
:207BE000002813D0FFE71598069008A8017807AA1378C91A069B59180691069915910078A3
:207C00001178169A081A10181690FFE7169808A90978491E084207D0FFE7169808A9097827
:207C2000494208401690FFE7002005900598002806D5FFE705980D99086305980E901AE0C7
:207C40000D98D44941650D980BF0A8FA05900598002806D5FFE705980D99086305980E9076
:207C600009E017980D9948640D984C210122425400200E90FFE70E980FB0F0BD1503092058
:207C8000B0B58CB01C4615460A90099108A8028007A803800A98406DBE49884207D0FFE711
:207CA0000A98964901630BA89549018020E10A984C21405C002807D1FFE70A98914901635B
:207CC0000BA89149018013E10998FBF781FF112807D3FFE70A988F4901630BA88E490180AD
:207CE00006E10A98099A06A909F06CFB04900498002807D5FFE704980A99086304980BA935
:207D00000880F5E00A98099905AA0CF05BF8049008A800884007002817D4FFE704980028F4
:207D200007D5FFE70A9806990422895E09F050FCFFE70498002807D5FFE704980A990863D8
:207D400004980BA90880D3E0FFE7049800281BD1FFE708A8008844210840442814D1FFE700
:207D60006A4804900A9806990422895E09F030FC0499002907D5FFE704980A99086304987C
:207D80000BA90880B4E0FFE708A800884007002849D5FFE704985E49884244D1FFE70A98D8
:207DA00003A900220AF0A8FE04900498002807D5FFE70A9806990422895E09F009FCFFE709
:207DC0000498002807D5FFE704980A99086304980BA908808CE00A9803A90988099A05ABFD
:207DE00001930123009300230BF042FF04900498002807D5FFE70A9806990422895E09F078
:207E0000E7FBFFE70498002807D5FFE704980A99086304980BA908806AE008A801880222EB
:207E20009143018016E00498002807D5FFE70A9806990422895E09F0CBFBFFE704980028BA
:207E400007D5FFE704980A99086304980BA908804EE0FFE70A9805A90988069A08AB1B88F3
:207E600007AC248800940CF0C1FB04900498002807D5FFE70A9806990422895E09F0A8FB53
:207E8000FFE70498002807D5FFE704980A99086304980BA908802BE008A800888007002802
:207EA0001ED5FFE7069800210291029A0CF040FC04900498002807D5FFE70A980699042242
:207EC000895E09F085FBFFE70498002807D5FFE704980A99086304980BA9088008E0FFE786
:207EE000069800218161069880880BA90880FFE70BA8008800B20CB0B0BDC046D8D8FFFF4F
:207F0000D8D80000F0D8FFFFF0D80000D2D8FFFFEED8FFFFCCD8FFFFCCD8000080B584B008
:207F200003900398406D6449884206D1FFE703984C21405C002801D1FFE728E00398806A21
:207F4000019000200290FFE702980399C96A884218D2FFE70198029928224A4380180090C2
:207F600000980421405E002807D0FFE7039800990422895E09F02CFBFFE7FFE70298401C9E
:207F80000290E1E703984C2100224254FFE704B080BDC0461503092010B58AB00C460890C0
:207FA00007A80180069205930898406D4249884205D0FFE7089841490163099178E00898E4
:207FC0004C21405C002805D1FFE708983C49016309916DE0089807A9098809B204AA09F001
:207FE000C3FA03900398002806D5FFE7039808990863039809905BE00498808BC006002802
:208000000DD4FFE72F4803900398002806D5FFE70398089908630398099049E0FFE7049885
:20802000808BC007002811D0FFE704988068401C002803D1FFE70020019003E004988068A5
:208040000190FFE7019804998861FFE70498806902900498808BC00700280ED0FFE7049897
:208060008068401C002803D1FFE70020029003E0049880680290FFE7FFE708980499069A86
:20808000029B059C00940AF0A3FA03900398002806D5FFE70398089908630398099007E09E
:2080A000059804998A691018886103980990FFE709980AB010BDC04615030920D8D8FFFF4B
:2080C000F0D8FFFFDBD8FFFF80B584B003900398E1210901FBF782FE0B49087003983C224F
:2080E000029111460192FBF779FE0199FBF776FE029A51700399009008460199FBF76EFECB
:20810000029A917004B080BDB011002080B586B0059004910392059805F0B4FD02900028C9
:208120000CD1FFE70398C088F02108400599CA6810430122D2031043C86083E00398C08864
:208140000006000F002828D1FFE70598C068002823D1FFE70598007A000700281DD4FFE71F
:208160000398008800B204990822895E884214D1FFE703980221405E04990A22895E884211
:208180000BD1FFE70398C0880F210840049AD2890A40904201D1FFE754E00398C088C00717
:2081A000002806D0FFE70598007A800700281AD4FFE70398C088C007002806D1FFE7059815
:2081C000007A400700280ED4FFE70398C0880006000F002806D0FFE70598007AC00700280C
:2081E00001D1FFE72EE0049840684088C007FF2102310122120200280192009101D10198A5
:20820000009000980299088003980088029948800398408802998880039880880299C88001
:208220000398C0880599C96808430299088105980021C1600498C0690299C860059805F024
:20824000D7FDFFE706B080BD70B588B0079007980821405E810E4018800904A908800888E2
:20826000002804D1FFE704A801210180FFE707980821405E04A90A8812B25201801AC20FBF
:208280008018400806AA108007980A22805E098809B20901401AC10F4018400805A90880BF
:2082A00017480390FFE7039815498031884225D2FFE707980699039A138804AC248824B2ED
:2082C00025465D434919059B558826466E439B19958826466E43D28854430A4A019222B2FD
:2082E000009232B209B21BB202921A46029B04F05DFAFFE7039808300390D4E708B070BDB8
:20830000404C0108FFFF000080B507F0BBFC80BD80B507F00DFAFEF79DFCFDF79DFA80BD21
:2083200080B584B003A802210170FFE701200090114A00200C210B2300F0B6FA03A9087064
:20834000FFE703A8007800210328029107D0FFE703A80078001F411E88410290FFE70298FC
:20836000C0070028E2D1FFE703A80078C01E4142484104B080BDC046100000200120704769
:208380000120704701207047012070470120704780B588B03C4800780028049008D0FFE79A
:2083A000049801280FD0FFE7049802283DD065E038480078C007002801D1FFE762E03248C0
:2083C00001210170FFE7FFF7DFFF07A90870FFF7D7FF06A908700391FFF7A2FF05A90870E4
:2083E00003980178C90700290CD0FFE707A80078C007002806D0FFE703F082FD25480021DC
:208400000170FFE7FFF7BAFF0290FFF7BBFF0190FFF7BCFF674909681D4A11606B49012202
:208420000A80194902220A702CE018480078C007002806D0FFE71448002101701348017069
:2084400020E0FFF785F8002809D1FFE7FFF77CF9002804D1FFE70C480021017012E05548FE
:2084600000680B490968401AFF21F631884204D3FFE705480121017004E003E00248002195
:208480000170FFE708B080BD72030020700300206C0300207103002010B582B01748016886
:2084A000012211430160052000070168032292029143016012480168FF2212029143016034
:2084C000104801682022114301600F480168114301600E48002101600D4B19600468144303
:2084E00004601868104318600720019001F0BCF9019801F03BF802B010BDC04634100240A7
:2085000064180240001802400C180240801802408418024080B584B002900298401E000E24
:20852000002803D0FFE70120039013E00298401E0A4908600020C143032201900846114681
:2085400001F052F80648019901600648072202600391FFE7039804B080BDC04614E000E0DE
:2085600018E000E010E000E010B512480168491C016011480068202108401049086008886A
:208580000F490988884205D1FFE70C4800680D490880FFE709480068094908800A4801887E
:2085A000084A13888B4309490C881C430C801188018010BD800300201000005074030020AE
:2085C000780300207A0300207C0300209E0300200120C006014908607047C04608ED00E0D8
:2085E00012480068C00700281FD0FFE70120C0430E4908600E480168491C01600D480088B0
:208600000006C00F002809D0FFE70B480168491C01600A480168491C016005E00648002147
:20862000016006480160FFE7FFE7704710040040AC110020280400203C0A00200804002098
:2086400080B507480068C007002808D0FFE70120C04303490860034800688047FFE780BD0C
:2086600010100040880A002010B588B0034607AC20700691059204A80221017084480078AD
:208680000328029000D9FBE00298C046784400794000874401095AB37E48002101707C4856
:2086A0000178491C0170EFE007A8007800210091784A0121FF2300F0F7F803A9087008783A
:2086C000032831D1FFE773484178827812028918C278120489180079000608186E490860B5
:2086E00008680321090508400121090588420AD0FFE76948006803210905084001214905D3
:20870000884205D1FFE762480178491C01700AE00698002101800598018004A8032202704F
:208720005B480170FFE7FFE703A8007804280BD1FFE70698002101800598018004A8032219
:20874000027053480170FFE79EE007A8007800210091504A0221FF2300F0A6F803A90870CD
:208760000878032839D1FFE74A48417880780002081849490860086803210840032820D107
:20878000FFE7454800680007800F032805D1FFE73F480178491C017012E03F480068400882
:2087A000062108403E49085A0699088005983D49018004A803210170354800210170FFE760
:2087C0000AE00698002101800598018004A8032202702F480170FFE7FFE703A8007804280B
:2087E0000BD1FFE70698002101800598018004A80322027026480170FFE745E007A8007805
:2088000000210091234A0321FF2300F04DF803A908700878032822D1FFE71E4841788278FD
:2088200012028918C27812048918007900060818194908600868194A10400A2242430698B7
:20884000028008680003800D322141430598018004A8032101700E4800210170FFE703A8E7
:20886000007804280BD1FFE70698002101800598018004A80322027005480170FFE703E06A
:20888000034800210170FFE704A8007808B010BD4B090020A0030020E4030020FF0300002C
:2088A000784D010888130000F0B593B0189C1D460E460746089012A80790089806910799EF
:2088C000087011A90698087010920FAA13700EAB1C700978C900184B5C18A08805900BA89C
:2088E000049005980391049988800398195A63881B0459180B911178FF2904D0FFE70F98D7
:208900000BA94871FFE70E980BA9087012A80078109B0C9909AA91800B9909910A9A099968
:20892000064C01940A240094FEF796F80DA90870087813B0F0BDC046C04C0108A33E0108E8
:2089400080B588B0014607AA107010781328049000D9BFE1049840007844808840008744B7
:208960001300250037003C002E001C004F0057005E0065006C007D009600CD00E6003A012C
:2089800070017D0173000A01012100200390039AFDF75EF806A90870A0E100200122029031
:2089A0000299FDF755F806A9087097E10120C10305200022FDF74CF806A908708EE1012021
:2089C000C20305200021FDF743F806A9087085E1FCF79EFF06A9087080E1C820059005989E
:2089E000C6490988884204DDFFE7C44800880590FFE705A80088FCF74FFF06A908706DE14C
:208A0000BE49C84A0020FFF72FFE06A9087065E1B5490020FDF752F906A908705EE1B349CE
:208A20000120FDF74BF906A9087057E1BF48C149FCF79CFE06A9087050E1AD490220FDF77C
:208A40003DF906A9087049E1B048B949FCF7B2FE06A90870AC48012101703FE1A648002115
:208A60000160AD480078AD490870A4480088002809D0FFE7AB480088002804D0FFE7A74813
:208A800000210170FFE706A80321017026E1A2480078A2490870954800884008A2498842ED
:208AA00009DBFFE7A1480088812804DCFFE79B4801210170FFE78B4800888005400F002859
:208AC00004D0FFE7954801210170FFE78B48008800280BD0FFE793480088002806D0FFE7FB
:208AE000804800784006002804D5FFE78B4802210170FFE706A803210170EFE07E480021C3
:208B0000016085480078854908707C480088002809D0FFE783480088002804D0FFE77F483A
:208B200001210170FFE706A803210170D6E072480021016078480078784908706B480088DB
:208B400040087749884204DCFFE7744800210170FFE76A480088002805D0FFE771480088EB
:208B6000002804D1FFE76D4803210170FFE706A803210170B2E05B4880784007002826D409
